{
  "contractName": "LibraryDemo",
  "abi": [
    {
      "constant": true,
      "inputs": [],
      "name": "testLibrary",
      "outputs": [
        {
          "name": "",
          "type": "bool"
        }
      ],
      "payable": false,
      "stateMutability": "pure",
      "type": "function"
    }
  ],
  "bytecode": "0x60a561002f600b82828239805160001a6073146000811461001f57610021565bfe5b5030600052607381538281f3fe730000000000000000000000000000000000000000301460806040526004361060555763ffffffff7c01000000000000000000000000000000000000000000000000000000006000350416630f15491e8114605a575b600080fd5b60606074565b604080519115158252519081900360200190f35b60019056fea165627a7a72305820f6bb3aaec2493c5241777b8cec1f2567144a41c8dc735cf13e8e653dc86d79e00029",
  "source": "pragma solidity 0.5.0;\n    \n/**\n* @title LibraryDemo\n*/\nlibrary LibraryDemo {\n    \n    /**\n    * @dev testLibrary(): Function that returns true to test the library (project requirement)\n    * @return true\n    */\n    function testLibrary() public pure returns (bool) {\n        return (true);\n    }\n\n}",
  "sourcePath": "/home/loic/dev/pledgeo/contracts/LibraryDemo.sol",
  "compiler": {
    "name": "solc",
    "version": "0.5.0+commit.1d4f565a.Emscripten.clang"
  },
  "schemaVersion": "3.0.1",
  "updatedAt": "2019-01-28T03:01:06.768Z",
  "devdoc": {
    "methods": {
      "testLibrary()": {
        "details": "testLibrary(): Function that returns true to test the library (project requirement)",
        "return": "true"
      }
    },
    "title": "LibraryDemo"
  },
  "userdoc": {
    "methods": {}
  }
}