{
  "contractName": "Ownable",
  "abi": [
    {
      "constant": true,
      "inputs": [],
      "name": "contractOwner",
      "outputs": [
        {
          "name": "",
          "type": "address"
        }
      ],
      "payable": false,
      "stateMutability": "view",
      "type": "function"
    },
    {
      "inputs": [],
      "payable": false,
      "stateMutability": "nonpayable",
      "type": "constructor"
    },
    {
      "anonymous": false,
      "inputs": [
        {
          "indexed": true,
          "name": "previousOwner",
          "type": "address"
        }
      ],
      "name": "OwnershipRenounced",
      "type": "event"
    },
    {
      "anonymous": false,
      "inputs": [
        {
          "indexed": true,
          "name": "previousOwner",
          "type": "address"
        },
        {
          "indexed": true,
          "name": "newOwner",
          "type": "address"
        }
      ],
      "name": "OwnershipTransferred",
      "type": "event"
    },
    {
      "constant": false,
      "inputs": [],
      "name": "renounceOwnership",
      "outputs": [],
      "payable": false,
      "stateMutability": "nonpayable",
      "type": "function"
    },
    {
      "constant": false,
      "inputs": [
        {
          "name": "_newOwner",
          "type": "address"
        }
      ],
      "name": "transferOwnership",
      "outputs": [],
      "payable": false,
      "stateMutability": "nonpayable",
      "type": "function"
    }
  ],
  "bytecode": "0x608060405234801561001057600080fd5b5060008054600160a060020a031916331790556103b3806100326000396000f3fe6080604052600436106100565763ffffffff7c0100000000000000000000000000000000000000000000000000000000600035041663715018a6811461005b578063ce606ee014610072578063f2fde38b146100a3575b600080fd5b34801561006757600080fd5b506100706100d6565b005b34801561007e57600080fd5b506100876101c9565b60408051600160a060020a039092168252519081900360200190f35b3480156100af57600080fd5b50610070600480360360208110156100c657600080fd5b5035600160a060020a03166101d8565b600054600160a060020a0316331461017457604080517f08c379a0000000000000000000000000000000000000000000000000000000008152602060048201526024808201527f46756e6374696f6e2063616e206f6e6c792062652063616c6c6564206279206f60448201527f776e657200000000000000000000000000000000000000000000000000000000606482015290519081900360840190fd5b60008054604051600160a060020a03909116917ff8df31144d9c2f0f6b59d69b8b98abd5459d07f2742c4df920b25aae33c6482091a26000805473ffffffffffffffffffffffffffffffffffffffff19169055565b600054600160a060020a031681565b600054600160a060020a0316331461027657604080517f08c379a0000000000000000000000000000000000000000000000000000000008152602060048201526024808201527f46756e6374696f6e2063616e206f6e6c792062652063616c6c6564206279206f60448201527f776e657200000000000000000000000000000000000000000000000000000000606482015290519081900360840190fd5b61027f81610282565b50565b600160a060020a038116151561031f57604080517f08c379a000000000000000000000000000000000000000000000000000000000815260206004820152602c60248201527f43616e6e6f74207472616e73666572204f776e65727368697020746f2061646460448201527f726573732030783030302e2e0000000000000000000000000000000000000000606482015290519081900360840190fd5b60008054604051600160a060020a03808516939216917f8be0079c531659141344cd1fd0a4f28419497f9722a3daafe3b4186f6b6457e091a36000805473ffffffffffffffffffffffffffffffffffffffff1916600160a060020a039290921691909117905556fea165627a7a7230582055ac033b976f1ced3e6ebba2665d61d7b0b05e2562d62638eff43a960bfbdcaf0029",
  "source": "pragma solidity 0.5.0;\n\n/**\n * @title Ownable\n * @dev The Ownable contract has an owner address, and provides basic authorization control\n * functions, this simplifies the implementation of \"user permissions\".\n */\ncontract Ownable {\n    address public contractOwner;\n\n    event OwnershipRenounced(address indexed previousOwner);\n    event OwnershipTransferred(\n        address indexed previousOwner,\n        address indexed newOwner\n    );\n\n    /**\n     * @dev The Ownable constructor sets the original `owner` of the contract to the sender\n     * account.\n     */\n    constructor() public {\n        contractOwner = msg.sender;\n    }\n\n    /**\n     * @dev Throws if called by any account other than the owner.\n     */\n    modifier onlyOwner() {\n        require(msg.sender == contractOwner, \"Function can only be called by owner\");\n        _;\n    }\n\n    /**\n     * @dev Allows the current owner to relinquish control of the contract.\n     * @notice Renouncing to ownership will leave the contract without an owner.\n     * It will not be possible to call the functions with the `onlyOwner`\n     * modifier anymore.\n     */\n    function renounceOwnership() public onlyOwner {\n        emit OwnershipRenounced(contractOwner);\n        contractOwner = address(0);\n    }\n\n    /**\n     * @dev Allows the current owner to transfer control of the contract to a newOwner.\n     * @param _newOwner The address to transfer ownership to.\n     */\n    function transferOwnership(address _newOwner) public onlyOwner {\n        _transferOwnership(_newOwner);\n    }\n\n    /**\n     * @dev Transfers control of the contract to a newOwner.\n     * @param _newOwner The address to transfer ownership to.\n     */\n    function _transferOwnership(address _newOwner) internal {\n        require(_newOwner != address(0), \"Cannot transfer Ownership to address 0x000..\");\n        emit OwnershipTransferred(contractOwner, _newOwner);\n        contractOwner = _newOwner;\n    }\n}",
  "sourcePath": "/home/loic/dev/pledgeo/contracts/Ownable.sol",
  "compiler": {
    "name": "solc",
    "version": "0.5.0+commit.1d4f565a.Emscripten.clang"
  },
  "schemaVersion": "3.0.1",
  "updatedAt": "2019-01-26T23:41:00.043Z",
  "devdoc": {
    "details": "The Ownable contract has an owner address, and provides basic authorization control functions, this simplifies the implementation of \"user permissions\".",
    "methods": {
      "constructor": {
        "details": "The Ownable constructor sets the original `owner` of the contract to the sender account."
      },
      "renounceOwnership()": {
        "details": "Allows the current owner to relinquish control of the contract."
      },
      "transferOwnership(address)": {
        "details": "Allows the current owner to transfer control of the contract to a newOwner.",
        "params": {
          "_newOwner": "The address to transfer ownership to."
        }
      }
    },
    "title": "Ownable"
  },
  "userdoc": {
    "methods": {
      "renounceOwnership()": {
        "notice": "Renouncing to ownership will leave the contract without an owner. It will not be possible to call the functions with the `onlyOwner` modifier anymore."
      }
    }
  }
}