{
  "contractName": "Pausable",
  "abi": [
    {
      "constant": true,
      "inputs": [],
      "name": "paused",
      "outputs": [
        {
          "name": "",
          "type": "bool"
        }
      ],
      "payable": false,
      "stateMutability": "view",
      "type": "function"
    },
    {
      "constant": false,
      "inputs": [],
      "name": "renounceOwnership",
      "outputs": [],
      "payable": false,
      "stateMutability": "nonpayable",
      "type": "function"
    },
    {
      "constant": true,
      "inputs": [],
      "name": "contractOwner",
      "outputs": [
        {
          "name": "",
          "type": "address"
        }
      ],
      "payable": false,
      "stateMutability": "view",
      "type": "function"
    },
    {
      "constant": false,
      "inputs": [
        {
          "name": "_newOwner",
          "type": "address"
        }
      ],
      "name": "transferOwnership",
      "outputs": [],
      "payable": false,
      "stateMutability": "nonpayable",
      "type": "function"
    },
    {
      "anonymous": false,
      "inputs": [],
      "name": "Pause",
      "type": "event"
    },
    {
      "anonymous": false,
      "inputs": [],
      "name": "Unpause",
      "type": "event"
    },
    {
      "anonymous": false,
      "inputs": [
        {
          "indexed": true,
          "name": "previousOwner",
          "type": "address"
        }
      ],
      "name": "OwnershipRenounced",
      "type": "event"
    },
    {
      "anonymous": false,
      "inputs": [
        {
          "indexed": true,
          "name": "previousOwner",
          "type": "address"
        },
        {
          "indexed": true,
          "name": "newOwner",
          "type": "address"
        }
      ],
      "name": "OwnershipTransferred",
      "type": "event"
    },
    {
      "constant": false,
      "inputs": [],
      "name": "pause",
      "outputs": [],
      "payable": false,
      "stateMutability": "nonpayable",
      "type": "function"
    },
    {
      "constant": false,
      "inputs": [],
      "name": "unpause",
      "outputs": [],
      "payable": false,
      "stateMutability": "nonpayable",
      "type": "function"
    }
  ],
  "bytecode": "0x608060405260008054600160a860020a03191633179055610669806100256000396000f3fe6080604052600436106100775763ffffffff7c01000000000000000000000000000000000000000000000000000000006000350416633f4ba83a811461007c5780635c975abb14610093578063715018a6146100bc5780638456cb59146100d1578063ce606ee0146100e6578063f2fde38b14610117575b600080fd5b34801561008857600080fd5b5061009161014a565b005b34801561009f57600080fd5b506100a861028a565b604080519115158252519081900360200190f35b3480156100c857600080fd5b506100916102ab565b3480156100dd57600080fd5b5061009161035f565b3480156100f257600080fd5b506100fb6104b5565b60408051600160a060020a039092168252519081900360200190f35b34801561012357600080fd5b506100916004803603602081101561013a57600080fd5b5035600160a060020a03166104c4565b600054600160a060020a031633146101a9576040805160e560020a62461bcd0281526020600482015260248082015260008051602061061e833981519152604482015260e160020a633bb732b902606482015290519081900360840190fd5b60005474010000000000000000000000000000000000000000900460ff161515610243576040805160e560020a62461bcd02815260206004820152603c60248201527f5468652066756e6374696f6e206d61792062652063616c6c6564206f6e6c792060448201527f7768656e2074686520636f6e7472616374206973207061757365642e00000000606482015290519081900360840190fd5b6000805474ff0000000000000000000000000000000000000000191681556040517f7805862f689e2f13df9f062ff482ad3ad112aca9e0847911ed832e158c525b339190a1565b60005474010000000000000000000000000000000000000000900460ff1681565b600054600160a060020a0316331461030a576040805160e560020a62461bcd0281526020600482015260248082015260008051602061061e833981519152604482015260e160020a633bb732b902606482015290519081900360840190fd5b60008054604051600160a060020a03909116917ff8df31144d9c2f0f6b59d69b8b98abd5459d07f2742c4df920b25aae33c6482091a26000805473ffffffffffffffffffffffffffffffffffffffff19169055565b600054600160a060020a031633146103be576040805160e560020a62461bcd0281526020600482015260248082015260008051602061061e833981519152604482015260e160020a633bb732b902606482015290519081900360840190fd5b60005474010000000000000000000000000000000000000000900460ff1615610457576040805160e560020a62461bcd02815260206004820152602481018290527f5468652066756e6374696f6e206d61792062652063616c6c6564206f6e6c792060448201527f7768656e2074686520636f6e7472616374206973206e6f74207061757365642e606482015290519081900360840190fd5b6000805474ff00000000000000000000000000000000000000001916740100000000000000000000000000000000000000001781556040517f6985a02210a168e66602d3235cb6db0e70f92b3ba4d376a33c0f3d9434bff6259190a1565b600054600160a060020a031681565b600054600160a060020a03163314610523576040805160e560020a62461bcd0281526020600482015260248082015260008051602061061e833981519152604482015260e160020a633bb732b902606482015290519081900360840190fd5b61052c8161052f565b50565b600160a060020a03811615156105b5576040805160e560020a62461bcd02815260206004820152602c60248201527f43616e6e6f74207472616e73666572204f776e65727368697020746f2061646460448201527f726573732030783030302e2e0000000000000000000000000000000000000000606482015290519081900360840190fd5b60008054604051600160a060020a03808516939216917f8be0079c531659141344cd1fd0a4f28419497f9722a3daafe3b4186f6b6457e091a36000805473ffffffffffffffffffffffffffffffffffffffff1916600160a060020a039290921691909117905556fe46756e6374696f6e2063616e206f6e6c792062652063616c6c6564206279206fa165627a7a72305820eb655d76c2d31d3b6ac3bb5cec9978a811b19c0477716e0713c8b07cf30b9fe00029",
  "source": "pragma solidity 0.5.0;\n\nimport \"./Ownable.sol\";\n\n/**\n * @title Pausable\n * @dev Base contract which allows children to implement an emergency stop mechanism.\n */\ncontract Pausable is Ownable {\n    event Pause();\n    event Unpause();\n\n    bool public paused = false;\n\n    /**\n     * @dev Modifier to make a function callable only when the contract is not paused.\n     */\n    modifier whenNotPaused() {\n        require(!paused, \"The function may be called only when the contract is not paused.\");\n        _;\n    }\n\n    /**\n     * @dev Modifier to make a function callable only when the contract is paused.\n     */\n    modifier whenPaused() {\n        require(paused, \"The function may be called only when the contract is paused.\");\n        _;\n    }\n\n    /**\n     * @dev called by the owner to pause, triggers stopped state\n     */\n    function pause() public onlyOwner whenNotPaused {\n        paused = true;\n        emit Pause();\n    }\n\n    /**\n     * @dev called by the owner to unpause, returns to normal state\n     */\n    function unpause() public onlyOwner whenPaused {\n        paused = false;\n        emit Unpause();\n    }\n}",
  "sourcePath": "/home/loic/dev/pledgeo/contracts/Pausable.sol",
  "compiler": {
    "name": "solc",
    "version": "0.5.0+commit.1d4f565a.Emscripten.clang"
  },
  "schemaVersion": "3.0.1",
  "updatedAt": "2019-01-26T23:41:00.040Z",
  "devdoc": {
    "details": "Base contract which allows children to implement an emergency stop mechanism.",
    "methods": {
      "pause()": {
        "details": "called by the owner to pause, triggers stopped state"
      },
      "renounceOwnership()": {
        "details": "Allows the current owner to relinquish control of the contract."
      },
      "transferOwnership(address)": {
        "details": "Allows the current owner to transfer control of the contract to a newOwner.",
        "params": {
          "_newOwner": "The address to transfer ownership to."
        }
      },
      "unpause()": {
        "details": "called by the owner to unpause, returns to normal state"
      }
    },
    "title": "Pausable"
  },
  "userdoc": {
    "methods": {
      "renounceOwnership()": {
        "notice": "Renouncing to ownership will leave the contract without an owner. It will not be possible to call the functions with the `onlyOwner` modifier anymore."
      }
    }
  }
}