{
  "contractName": "Pledgeo",
  "abi": [
    {
      "constant": true,
      "inputs": [
        {
          "name": "",
          "type": "uint256"
        }
      ],
      "name": "events",
      "outputs": [
        {
          "name": "state",
          "type": "uint8"
        },
        {
          "name": "description",
          "type": "string"
        },
        {
          "name": "roomId",
          "type": "uint256"
        },
        {
          "name": "businessId",
          "type": "uint256"
        },
        {
          "name": "communityId",
          "type": "uint256"
        },
        {
          "name": "startDate",
          "type": "uint256"
        },
        {
          "name": "duration",
          "type": "uint256"
        },
        {
          "name": "businessOwnerPledge",
          "type": "uint256"
        },
        {
          "name": "participantPledge",
          "type": "uint256"
        },
        {
          "name": "minNbOfParticipants",
          "type": "uint256"
        },
        {
          "name": "nbOfParticipants",
          "type": "uint256"
        },
        {
          "name": "transportationCommissionRate",
          "type": "uint256"
        },
        {
          "name": "deadline",
          "type": "uint256"
        }
      ],
      "payable": false,
      "stateMutability": "view",
      "type": "function",
      "signature": "0x0b791430"
    },
    {
      "constant": true,
      "inputs": [
        {
          "name": "",
          "type": "uint256"
        }
      ],
      "name": "rooms",
      "outputs": [
        {
          "name": "owner",
          "type": "address"
        },
        {
          "name": "description",
          "type": "string"
        },
        {
          "name": "compensationRate",
          "type": "uint256"
        }
      ],
      "payable": false,
      "stateMutability": "view",
      "type": "function",
      "signature": "0x1bae0ac8"
    },
    {
      "constant": false,
      "inputs": [],
      "name": "unpause",
      "outputs": [],
      "payable": false,
      "stateMutability": "nonpayable",
      "type": "function",
      "signature": "0x3f4ba83a"
    },
    {
      "constant": true,
      "inputs": [],
      "name": "paused",
      "outputs": [
        {
          "name": "",
          "type": "bool"
        }
      ],
      "payable": false,
      "stateMutability": "view",
      "type": "function",
      "signature": "0x5c975abb"
    },
    {
      "constant": false,
      "inputs": [],
      "name": "renounceOwnership",
      "outputs": [],
      "payable": false,
      "stateMutability": "nonpayable",
      "type": "function",
      "signature": "0x715018a6"
    },
    {
      "constant": false,
      "inputs": [],
      "name": "pause",
      "outputs": [],
      "payable": false,
      "stateMutability": "nonpayable",
      "type": "function",
      "signature": "0x8456cb59"
    },
    {
      "constant": true,
      "inputs": [
        {
          "name": "",
          "type": "address"
        }
      ],
      "name": "platformManagers",
      "outputs": [
        {
          "name": "",
          "type": "bool"
        }
      ],
      "payable": false,
      "stateMutability": "view",
      "type": "function",
      "signature": "0xa77b8738"
    },
    {
      "constant": true,
      "inputs": [
        {
          "name": "",
          "type": "uint256"
        }
      ],
      "name": "businesses",
      "outputs": [
        {
          "name": "owner",
          "type": "address"
        },
        {
          "name": "description",
          "type": "string"
        }
      ],
      "payable": false,
      "stateMutability": "view",
      "type": "function",
      "signature": "0xb984c6ec"
    },
    {
      "constant": true,
      "inputs": [],
      "name": "contractOwner",
      "outputs": [
        {
          "name": "",
          "type": "address"
        }
      ],
      "payable": false,
      "stateMutability": "view",
      "type": "function",
      "signature": "0xce606ee0"
    },
    {
      "constant": true,
      "inputs": [
        {
          "name": "",
          "type": "uint256"
        }
      ],
      "name": "communities",
      "outputs": [
        {
          "name": "valid",
          "type": "bool"
        },
        {
          "name": "description",
          "type": "string"
        },
        {
          "name": "nbOfMembers",
          "type": "uint256"
        }
      ],
      "payable": false,
      "stateMutability": "view",
      "type": "function",
      "signature": "0xe590b56a"
    },
    {
      "constant": false,
      "inputs": [
        {
          "name": "_newOwner",
          "type": "address"
        }
      ],
      "name": "transferOwnership",
      "outputs": [],
      "payable": false,
      "stateMutability": "nonpayable",
      "type": "function",
      "signature": "0xf2fde38b"
    },
    {
      "payable": false,
      "stateMutability": "nonpayable",
      "type": "fallback"
    },
    {
      "anonymous": false,
      "inputs": [
        {
          "indexed": false,
          "name": "manager",
          "type": "address"
        }
      ],
      "name": "AddPlatformManager",
      "type": "event",
      "signature": "0xfc33d6be2b4ce384660a6b100d063b77fcfc32b9ef57492ed63b0d68e3ec532d"
    },
    {
      "anonymous": false,
      "inputs": [
        {
          "indexed": false,
          "name": "manager",
          "type": "address"
        }
      ],
      "name": "RemovePlatformManager",
      "type": "event",
      "signature": "0xb41e86af3a4b7ff2c70e0a764aa847deee20eb44bfbf1b408b0afc7bc269df4d"
    },
    {
      "anonymous": false,
      "inputs": [
        {
          "indexed": false,
          "name": "communityId",
          "type": "uint256"
        },
        {
          "indexed": true,
          "name": "manager",
          "type": "address"
        }
      ],
      "name": "AddCommunity",
      "type": "event",
      "signature": "0x188798375ad155512643a400bee872fd90957e7add156fe1f4605991fef997b2"
    },
    {
      "anonymous": false,
      "inputs": [
        {
          "indexed": false,
          "name": "communityId",
          "type": "uint256"
        },
        {
          "indexed": false,
          "name": "member",
          "type": "address"
        }
      ],
      "name": "JoinCommunity",
      "type": "event",
      "signature": "0xa35303f560f6a6fab0df72c9350f0a30a7b4a6de25b15c9bc271b203741056e6"
    },
    {
      "anonymous": false,
      "inputs": [
        {
          "indexed": false,
          "name": "communityId",
          "type": "uint256"
        },
        {
          "indexed": true,
          "name": "manager",
          "type": "address"
        }
      ],
      "name": "RemoveCommunity",
      "type": "event",
      "signature": "0xf258dae9a0e6d562f13c1f8ed92388a4ac5e252fae40502c3af503eb3ab12fa9"
    },
    {
      "anonymous": false,
      "inputs": [
        {
          "indexed": false,
          "name": "businessId",
          "type": "uint256"
        }
      ],
      "name": "AddBusiness",
      "type": "event",
      "signature": "0x0b24fe960f18dc924afbf9ee4c54b3c3b83ff90d6c098720b48ff5deecfaaff2"
    },
    {
      "anonymous": false,
      "inputs": [
        {
          "indexed": false,
          "name": "businessId",
          "type": "uint256"
        }
      ],
      "name": "RemoveBusiness",
      "type": "event",
      "signature": "0xd76625b82a7c639d5ddef8d5ad7d640db468a74050d714dfcd181a61239abdca"
    },
    {
      "anonymous": false,
      "inputs": [
        {
          "indexed": false,
          "name": "roomId",
          "type": "uint256"
        }
      ],
      "name": "AddRoom",
      "type": "event",
      "signature": "0x5eb8fe5053bc12363ace2cf19996fbd78394df83dc158ea65c1368c9226f75ed"
    },
    {
      "anonymous": false,
      "inputs": [
        {
          "indexed": false,
          "name": "roomId",
          "type": "uint256"
        }
      ],
      "name": "RemoveRoom",
      "type": "event",
      "signature": "0xa1cc464559b2ee87b82a169589983e5159ea8fd08df48409cd4a871394c6f5ed"
    },
    {
      "anonymous": false,
      "inputs": [
        {
          "indexed": false,
          "name": "eventId",
          "type": "uint256"
        }
      ],
      "name": "SuggestEvent",
      "type": "event",
      "signature": "0x7994e78faf536b60eafa6c7177d6c226e58a026fe0748fb075a65cd23b1f3abc"
    },
    {
      "anonymous": false,
      "inputs": [
        {
          "indexed": false,
          "name": "eventId",
          "type": "uint256"
        },
        {
          "indexed": false,
          "name": "businessId",
          "type": "uint256"
        }
      ],
      "name": "AcceptEvent",
      "type": "event",
      "signature": "0x327e9fa6b41de3f04c1e5d36d2bfd64cc4a2381c96ba4982e4cc76be2e4020eb"
    },
    {
      "anonymous": false,
      "inputs": [
        {
          "indexed": false,
          "name": "eventId",
          "type": "uint256"
        }
      ],
      "name": "SubmitEvent",
      "type": "event",
      "signature": "0x0b2304b5d349e621a8ec4e06ec0dc02515b6694cd021d508232feb9992aa53d1"
    },
    {
      "anonymous": false,
      "inputs": [
        {
          "indexed": false,
          "name": "eventId",
          "type": "uint256"
        },
        {
          "indexed": false,
          "name": "participant",
          "type": "address"
        }
      ],
      "name": "JoinEvent",
      "type": "event",
      "signature": "0x138c89daddf1440a59af84659c5f30103ea131ade82aaea7a992c3dc29b7e0d9"
    },
    {
      "anonymous": false,
      "inputs": [
        {
          "indexed": false,
          "name": "eventId",
          "type": "uint256"
        }
      ],
      "name": "CancelEvent",
      "type": "event",
      "signature": "0xe933406ce445ea24d84ca4529e514adc8926e62cdc8b5a67c568c9fd578f1a8a"
    },
    {
      "anonymous": false,
      "inputs": [
        {
          "indexed": false,
          "name": "eventId",
          "type": "uint256"
        },
        {
          "indexed": false,
          "name": "participant",
          "type": "address"
        }
      ],
      "name": "LeaveEvent",
      "type": "event",
      "signature": "0xac3f04dc313809914388d22d8ef9fdb1ebd73731506e581d3720ea08510bddc0"
    },
    {
      "anonymous": false,
      "inputs": [
        {
          "indexed": false,
          "name": "eventId",
          "type": "uint256"
        }
      ],
      "name": "DropEvent",
      "type": "event",
      "signature": "0x29eebd1c22b4dfa318ef20f4303a288f22385512648fde76a9537f512d914fe8"
    },
    {
      "anonymous": false,
      "inputs": [
        {
          "indexed": false,
          "name": "eventId",
          "type": "uint256"
        }
      ],
      "name": "ConcludeEvent",
      "type": "event",
      "signature": "0x97796dd0e75af3412e6615806d09e50e16b04093445f02241e53592d247367f9"
    },
    {
      "anonymous": false,
      "inputs": [
        {
          "indexed": false,
          "name": "eventId",
          "type": "uint256"
        },
        {
          "indexed": false,
          "name": "complainant",
          "type": "address"
        }
      ],
      "name": "SubmitComplaint",
      "type": "event",
      "signature": "0xc14bf7c412f8f2853f6264beed2fb32d0e4c163a3aee9307b15072008da5f89b"
    },
    {
      "anonymous": false,
      "inputs": [
        {
          "indexed": false,
          "name": "eventId",
          "type": "uint256"
        },
        {
          "indexed": true,
          "name": "platformManager",
          "type": "address"
        }
      ],
      "name": "ConcludeEventWithComplaints",
      "type": "event",
      "signature": "0xe9273360288c36c0f677b59bb8c050cb3a69985a21a3c740cc6d49a4f4fba320"
    },
    {
      "anonymous": false,
      "inputs": [],
      "name": "Pause",
      "type": "event",
      "signature": "0x6985a02210a168e66602d3235cb6db0e70f92b3ba4d376a33c0f3d9434bff625"
    },
    {
      "anonymous": false,
      "inputs": [],
      "name": "Unpause",
      "type": "event",
      "signature": "0x7805862f689e2f13df9f062ff482ad3ad112aca9e0847911ed832e158c525b33"
    },
    {
      "anonymous": false,
      "inputs": [
        {
          "indexed": true,
          "name": "previousOwner",
          "type": "address"
        }
      ],
      "name": "OwnershipRenounced",
      "type": "event",
      "signature": "0xf8df31144d9c2f0f6b59d69b8b98abd5459d07f2742c4df920b25aae33c64820"
    },
    {
      "anonymous": false,
      "inputs": [
        {
          "indexed": true,
          "name": "previousOwner",
          "type": "address"
        },
        {
          "indexed": true,
          "name": "newOwner",
          "type": "address"
        }
      ],
      "name": "OwnershipTransferred",
      "type": "event",
      "signature": "0x8be0079c531659141344cd1fd0a4f28419497f9722a3daafe3b4186f6b6457e0"
    },
    {
      "constant": false,
      "inputs": [
        {
          "name": "_manager",
          "type": "address"
        }
      ],
      "name": "addPlatformManager",
      "outputs": [],
      "payable": false,
      "stateMutability": "nonpayable",
      "type": "function",
      "signature": "0x23b6439c"
    },
    {
      "constant": false,
      "inputs": [
        {
          "name": "_manager",
          "type": "address"
        }
      ],
      "name": "removePlatformManager",
      "outputs": [],
      "payable": false,
      "stateMutability": "nonpayable",
      "type": "function",
      "signature": "0xcb3fa6a9"
    },
    {
      "constant": false,
      "inputs": [
        {
          "name": "_description",
          "type": "string"
        }
      ],
      "name": "addCommunity",
      "outputs": [],
      "payable": false,
      "stateMutability": "nonpayable",
      "type": "function",
      "signature": "0x43792cb4"
    },
    {
      "constant": false,
      "inputs": [
        {
          "name": "_communityId",
          "type": "uint256"
        }
      ],
      "name": "joinCommunity",
      "outputs": [],
      "payable": false,
      "stateMutability": "nonpayable",
      "type": "function",
      "signature": "0xb122a0ef"
    },
    {
      "constant": false,
      "inputs": [
        {
          "name": "_communityId",
          "type": "uint256"
        }
      ],
      "name": "removeCommunity",
      "outputs": [],
      "payable": false,
      "stateMutability": "nonpayable",
      "type": "function",
      "signature": "0xa7f84630"
    },
    {
      "constant": false,
      "inputs": [
        {
          "name": "_description",
          "type": "string"
        }
      ],
      "name": "addBusiness",
      "outputs": [],
      "payable": false,
      "stateMutability": "nonpayable",
      "type": "function",
      "signature": "0xb7c1e1e8"
    },
    {
      "constant": false,
      "inputs": [
        {
          "name": "_businessId",
          "type": "uint256"
        }
      ],
      "name": "removeBusiness",
      "outputs": [],
      "payable": false,
      "stateMutability": "nonpayable",
      "type": "function",
      "signature": "0x9f4bca89"
    },
    {
      "constant": false,
      "inputs": [
        {
          "name": "_description",
          "type": "string"
        },
        {
          "name": "_communityId",
          "type": "uint256"
        },
        {
          "name": "_compensationRate",
          "type": "uint256"
        }
      ],
      "name": "addRoom",
      "outputs": [],
      "payable": false,
      "stateMutability": "nonpayable",
      "type": "function",
      "signature": "0x2cc91f41"
    },
    {
      "constant": false,
      "inputs": [
        {
          "name": "_roomId",
          "type": "uint256"
        }
      ],
      "name": "removeRoom",
      "outputs": [],
      "payable": false,
      "stateMutability": "nonpayable",
      "type": "function",
      "signature": "0x461d60be"
    },
    {
      "constant": false,
      "inputs": [
        {
          "name": "_description",
          "type": "string"
        },
        {
          "name": "_communityId",
          "type": "uint256"
        },
        {
          "name": "_roomId",
          "type": "uint256"
        },
        {
          "name": "_startDate",
          "type": "uint256"
        },
        {
          "name": "_duration",
          "type": "uint256"
        },
        {
          "name": "_businessOwnerPledge",
          "type": "uint256"
        },
        {
          "name": "_participantPledge",
          "type": "uint256"
        },
        {
          "name": "_transportationCommissionRate",
          "type": "uint256"
        },
        {
          "name": "_deadline",
          "type": "uint256"
        }
      ],
      "name": "suggestEvent",
      "outputs": [],
      "payable": true,
      "stateMutability": "payable",
      "type": "function",
      "signature": "0xa5271e33"
    },
    {
      "constant": false,
      "inputs": [
        {
          "name": "_description",
          "type": "string"
        },
        {
          "name": "_communityId",
          "type": "uint256"
        },
        {
          "name": "_businessId",
          "type": "uint256"
        },
        {
          "name": "_roomId",
          "type": "uint256"
        },
        {
          "name": "_startDate",
          "type": "uint256"
        },
        {
          "name": "_duration",
          "type": "uint256"
        },
        {
          "name": "_businessOwnerPledge",
          "type": "uint256"
        },
        {
          "name": "_participantPledge",
          "type": "uint256"
        },
        {
          "name": "_minNbOfParticipants",
          "type": "uint256"
        },
        {
          "name": "_transportationCommissionRate",
          "type": "uint256"
        },
        {
          "name": "_deadline",
          "type": "uint256"
        }
      ],
      "name": "submitEvent",
      "outputs": [],
      "payable": true,
      "stateMutability": "payable",
      "type": "function",
      "signature": "0xbc616cbe"
    },
    {
      "constant": false,
      "inputs": [
        {
          "name": "_eventId",
          "type": "uint256"
        },
        {
          "name": "_businessId",
          "type": "uint256"
        }
      ],
      "name": "acceptEvent",
      "outputs": [],
      "payable": true,
      "stateMutability": "payable",
      "type": "function",
      "signature": "0xca48c186"
    },
    {
      "constant": true,
      "inputs": [
        {
          "name": "_communityId",
          "type": "uint256"
        }
      ],
      "name": "getEvents",
      "outputs": [
        {
          "name": "",
          "type": "uint256[]"
        }
      ],
      "payable": false,
      "stateMutability": "view",
      "type": "function",
      "signature": "0xbd687def"
    },
    {
      "constant": false,
      "inputs": [
        {
          "name": "_eventId",
          "type": "uint256"
        }
      ],
      "name": "joinEvent",
      "outputs": [],
      "payable": true,
      "stateMutability": "payable",
      "type": "function",
      "signature": "0x38d361e2"
    },
    {
      "constant": false,
      "inputs": [
        {
          "name": "_eventId",
          "type": "uint256"
        }
      ],
      "name": "cancelEvent",
      "outputs": [],
      "payable": false,
      "stateMutability": "nonpayable",
      "type": "function",
      "signature": "0x3f69babd"
    },
    {
      "constant": false,
      "inputs": [
        {
          "name": "_eventId",
          "type": "uint256"
        }
      ],
      "name": "leaveEvent",
      "outputs": [],
      "payable": false,
      "stateMutability": "nonpayable",
      "type": "function",
      "signature": "0xe3129170"
    },
    {
      "constant": false,
      "inputs": [
        {
          "name": "_eventId",
          "type": "uint256"
        }
      ],
      "name": "dropEvent",
      "outputs": [],
      "payable": false,
      "stateMutability": "nonpayable",
      "type": "function",
      "signature": "0x72421e61"
    },
    {
      "constant": false,
      "inputs": [
        {
          "name": "_eventId",
          "type": "uint256"
        }
      ],
      "name": "concludeEvent",
      "outputs": [],
      "payable": false,
      "stateMutability": "nonpayable",
      "type": "function",
      "signature": "0x4fa43d8b"
    },
    {
      "constant": false,
      "inputs": [
        {
          "name": "_eventId",
          "type": "uint256"
        },
        {
          "name": "_description",
          "type": "string"
        }
      ],
      "name": "submitComplaint",
      "outputs": [],
      "payable": false,
      "stateMutability": "nonpayable",
      "type": "function",
      "signature": "0x308e43d1"
    },
    {
      "constant": false,
      "inputs": [
        {
          "name": "_eventId",
          "type": "uint256"
        },
        {
          "name": "_participantRefunds",
          "type": "uint256[]"
        },
        {
          "name": "_businessOwnerRefund",
          "type": "uint256"
        },
        {
          "name": "_roomOwnerRefund",
          "type": "uint256"
        }
      ],
      "name": "concludeEventWithComplaints",
      "outputs": [],
      "payable": false,
      "stateMutability": "nonpayable",
      "type": "function",
      "signature": "0x7ec27629"
    },
    {
      "constant": false,
      "inputs": [],
      "name": "withdrawalance",
      "outputs": [],
      "payable": false,
      "stateMutability": "nonpayable",
      "type": "function",
      "signature": "0xcfdc8b23"
    },
    {
      "constant": true,
      "inputs": [],
      "name": "currentTime",
      "outputs": [
        {
          "name": "_currentTime",
          "type": "uint256"
        }
      ],
      "payable": false,
      "stateMutability": "view",
      "type": "function",
      "signature": "0xd18e81b3"
    }
  ],
  "bytecode": "0x60806040526000805460018281556002839055600355600482905562015180600555600160a860020a031916331790556147808061003e6000396000f3fe6080604052600436106101a05763ffffffff7c01000000000000000000000000000000000000000000000000000000006000350416630b79143081146101fd5780631bae0ac81461030157806323b6439c146103b95780632cc91f41146103ee578063308e43d11461047157806338d361e2146104f55780633f4ba83a146105125780633f69babd1461052757806343792cb414610551578063461d60be146105ce5780634fa43d8b146105f85780635c975abb14610622578063715018a61461064b57806372421e61146106605780637ec276291461068a5780638456cb59146107145780639f4bca8914610729578063a5271e3314610753578063a77b8738146107ee578063a7f8463014610821578063b122a0ef1461084b578063b7c1e1e814610875578063b984c6ec146108f2578063bc616cbe146109ad578063bd687def14610a56578063ca48c18614610ad0578063cb3fa6a914610af3578063ce606ee014610b26578063cfdc8b2314610b57578063d18e81b314610b6c578063e312917014610b93578063e590b56a14610bbd578063f2fde38b14610c30575b3480156101ac57600080fd5b506040805160e560020a62461bcd02815260206004820152601160248201527f46616c6c6261636b2066756e6374696f6e000000000000000000000000000000604482015290519081900360640190fd5b34801561020957600080fd5b506102276004803603602081101561022057600080fd5b5035610c63565b604051808e600681111561023757fe5b60ff168152602001806020018d81526020018c81526020018b81526020018a815260200189815260200188815260200187815260200186815260200185815260200184815260200183815260200182810382528e818151815260200191508051906020019080838360005b838110156102ba5781810151838201526020016102a2565b50505050905090810190601f1680156102e75780820380516001836020036101000a031916815260200191505b509e50505050505050505050505050505060405180910390f35b34801561030d57600080fd5b5061032b6004803603602081101561032457600080fd5b5035610d51565b60408051600160a060020a0385168152908101829052606060208083018281528551928401929092528451608084019186019080838360005b8381101561037c578181015183820152602001610364565b50505050905090810190601f1680156103a95780820380516001836020036101000a031916815260200191505b5094505050505060405180910390f35b3480156103c557600080fd5b506103ec600480360360208110156103dc57600080fd5b5035600160a060020a0316610e0b565b005b3480156103fa57600080fd5b506103ec6004803603606081101561041157600080fd5b81019060208101813564010000000081111561042c57600080fd5b82018360208201111561043e57600080fd5b8035906020019184600183028401116401000000008311171561046057600080fd5b919350915080359060200135610f29565b34801561047d57600080fd5b506103ec6004803603604081101561049457600080fd5b813591908101906040810160208201356401000000008111156104b657600080fd5b8201836020820111156104c857600080fd5b803590602001918460018302840111640100000000831117156104ea57600080fd5b509092509050611156565b6103ec6004803603602081101561050b57600080fd5b50356113bc565b34801561051e57600080fd5b506103ec6116de565b34801561053357600080fd5b506103ec6004803603602081101561054a57600080fd5b50356117fb565b34801561055d57600080fd5b506103ec6004803603602081101561057457600080fd5b81019060208101813564010000000081111561058f57600080fd5b8201836020820111156105a157600080fd5b803590602001918460018302840111640100000000831117156105c357600080fd5b509092509050611b7a565b3480156105da57600080fd5b506103ec600480360360208110156105f157600080fd5b5035611cfb565b34801561060457600080fd5b506103ec6004803603602081101561061b57600080fd5b5035611e5c565b34801561062e57600080fd5b506106376122ac565b604080519115158252519081900360200190f35b34801561065757600080fd5b506103ec6122bc565b34801561066c57600080fd5b506103ec6004803603602081101561068357600080fd5b5035612363565b34801561069657600080fd5b506103ec600480360360808110156106ad57600080fd5b813591908101906040810160208201356401000000008111156106cf57600080fd5b8201836020820111156106e157600080fd5b8035906020019184602083028401116401000000008311171561070357600080fd5b919350915080359060200135612681565b34801561072057600080fd5b506103ec6129e0565b34801561073557600080fd5b506103ec6004803603602081101561074c57600080fd5b5035612af0565b6103ec600480360361012081101561076a57600080fd5b81019060208101813564010000000081111561078557600080fd5b82018360208201111561079757600080fd5b803590602001918460018302840111640100000000831117156107b957600080fd5b919350915080359060208101359060408101359060608101359060808101359060a08101359060c08101359060e00135612c49565b3480156107fa57600080fd5b506106376004803603602081101561081157600080fd5b5035600160a060020a03166131ba565b34801561082d57600080fd5b506103ec6004803603602081101561084457600080fd5b50356131cf565b34801561085757600080fd5b506103ec6004803603602081101561086e57600080fd5b503561333c565b34801561088157600080fd5b506103ec6004803603602081101561089857600080fd5b8101906020810181356401000000008111156108b357600080fd5b8201836020820111156108c557600080fd5b803590602001918460018302840111640100000000831117156108e757600080fd5b50909250905061348a565b3480156108fe57600080fd5b5061091c6004803603602081101561091557600080fd5b5035613567565b6040518083600160a060020a0316600160a060020a0316815260200180602001828103825283818151815260200191508051906020019080838360005b83811015610971578181015183820152602001610959565b50505050905090810190601f16801561099e5780820380516001836020036101000a031916815260200191505b50935050505060405180910390f35b6103ec60048036036101608110156109c457600080fd5b8101906020810181356401000000008111156109df57600080fd5b8201836020820111156109f157600080fd5b80359060200191846001830284011164010000000083111715610a1357600080fd5b919350915080359060208101359060408101359060608101359060808101359060a08101359060c08101359060e08101359061010081013590610120013561361b565b348015610a6257600080fd5b50610a8060048036036020811015610a7957600080fd5b5035613b72565b60408051602080825283518183015283519192839290830191858101910280838360005b83811015610abc578181015183820152602001610aa4565b505050509050019250505060405180910390f35b6103ec60048036036040811015610ae657600080fd5b5080359060200135613d51565b348015610aff57600080fd5b506103ec60048036036020811015610b1657600080fd5b5035600160a060020a0316613fca565b348015610b3257600080fd5b50610b3b6140e5565b60408051600160a060020a039092168252519081900360200190f35b348015610b6357600080fd5b506103ec6140f4565b348015610b7857600080fd5b50610b81614139565b60408051918252519081900360200190f35b348015610b9f57600080fd5b506103ec60048036036020811015610bb657600080fd5b503561413e565b348015610bc957600080fd5b50610be760048036036020811015610be057600080fd5b5035614399565b604080518415158152908101829052606060208083018281528551928401929092528451608084019186019080838360008381101561037c578181015183820152602001610364565b348015610c3c57600080fd5b506103ec60048036036020811015610c5357600080fd5b5035600160a060020a0316614412565b60096020908152600091825260409182902080546003820180548551601f6002600019600185161561010002019093169290920491820186900486028101860190965280865260ff909216949293909190830182828015610d055780601f10610cda57610100808354040283529160200191610d05565b820191906000526020600020905b815481529060010190602001808311610ce857829003601f168201915b50505050509080600401549080600501549080600601549080600701549080600801549080600901549080600a01549080600b01549080600c01549080600d01549080600e015490508d565b6008602090815260009182526040918290208054600180830180548651600261010094831615949094026000190190911692909204601f8101869004860283018601909652858252600160a060020a03909216949293909290830182828015610dfb5780601f10610dd057610100808354040283529160200191610dfb565b820191906000526020600020905b815481529060010190602001808311610dde57829003601f168201915b5050505050908060020154905083565b60005460a060020a900460ff1615610e6f576040805160e560020a62461bcd02815260206004820152602481018290526000805160206147158339815191526044820152600080516020614695833981519152606482015290519081900360840190fd5b600054600160a060020a03163314610ece576040805160e560020a62461bcd02815260206004820152602480820152600080516020614735833981519152604482015260e160020a633bb732b902606482015290519081900360840190fd5b600160a060020a0381166000818152600a6020908152604091829020805460ff19166001179055815192835290517ffc33d6be2b4ce384660a6b100d063b77fcfc32b9ef57492ed63b0d68e3ec532d9281900390910190a150565b60005460a060020a900460ff1615610f8d576040805160e560020a62461bcd02815260206004820152602481018290526000805160206147158339815191526044820152600080516020614695833981519152606482015290519081900360840190fd5b600082815260066020526040902054829060ff161515600114610ffc576040805160e560020a62461bcd02815260206004820152602d60248201526000805160206146b583398151915260448201526000805160206146d5833981519152606482015290519081900360840190fd5b6000838152600660209081526040808320338452600301909152902054839060ff16151560011461109d576040805160e560020a62461bcd02815260206004820152603d60248201527f4f6e6c792061206d656d626572206f662074686520676976656e20636f6d6d7560448201527f6e69747949642063616e2063616c6c20746869732066756e6374696f6e000000606482015290519081900360840190fd5b600380546000908152600860205260408082208054600160a060020a0319163317905591548152206110d390600101878761455e565b506003805460009081526008602090815260408083206002018790558783526006825280832084548452600501825291829020805460ff191660011790559154815190815290517f5eb8fe5053bc12363ace2cf19996fbd78394df83dc158ea65c1368c9226f75ed929181900390910190a1505060038054600101905550505050565b60005460a060020a900460ff16156111ba576040805160e560020a62461bcd02815260206004820152602481018290526000805160206147158339815191526044820152600080516020614695833981519152606482015290519081900360840190fd5b82600260008281526009602052604090205460ff1660068111156111da57fe5b14611243576040805160e560020a62461bcd02815260206004820152603e602482015260008051602061465583398151915260448201527f64206d75737420686176652074686520737461746520417070726f7665640000606482015290519081900360840190fd5b600084815260096020908152604080832033845260019081019092529091205460ff161515148061129a575060008481526009602090815260408083206005015483526007909152902054600160a060020a031633145b1515611316576040805160e560020a62461bcd02815260206004820152603f60248201527f4f6e6c792061207061727469636970616e74206f722074686520627573696e6560448201527f7373206f776e65722063616e207375626d6974206120636f6d706c61696e7400606482015290519081900360840190fd5b6000848152600960209081526040808320338452600f01909152902061133d90848461455e565b50600560008581526009602052604090205460ff16600681111561135d57fe5b1461137c576000848152600960205260409020805460ff191660051790555b6040805185815233602082015281517fc14bf7c412f8f2853f6264beed2fb32d0e4c163a3aee9307b15072008da5f89b929181900390910190a150505050565b60005460a060020a900460ff1615611420576040805160e560020a62461bcd02815260206004820152602481018290526000805160206147158339815191526044820152600080516020614695833981519152606482015290519081900360840190fd5b806000808281526009602052604090205460ff16600681111561143f57fe5b14806114675750600160008281526009602052604090205460ff16600681111561146557fe5b145b15156114f7576040805160e560020a62461bcd02815260206004820152604c602482015260008051602061465583398151915260448201527f64206d757374206861766520746865207374617465205375676765737465642060648201527f6f72205375626d69747465640000000000000000000000000000000000000000608482015290519081900360a40190fd5b60008281526009602090815260408083206006908101548452825280832033845260030190915290205460ff161515600114611557576040805160e560020a62461bcd028152602060048201526000602482015290519081900360640190fd5b6000828152600960205260409020600a015434146115e7576040805160e560020a62461bcd028152602060048201526053602482015260008051602061467583398151915260448201526000805160206146f583398151915260648201527f207061727469636970616e7420706c6564676500000000000000000000000000608482015290519081900360a40190fd5b60008281526009602081815260408084203380865260018083018552838720805460ff19168217905594845260028201805480870182559087529386209093018054600160a060020a031916909317909255600c90910180548301905560045483529091205460ff16600681111561165b57fe5b14801561167e57506000828152600960205260409020600b810154600290910154145b156116a0576004546000908152600960205260409020805460ff191660021790555b6040805183815233602082015281517f138c89daddf1440a59af84659c5f30103ea131ade82aaea7a992c3dc29b7e0d9929181900390910190a15050565b600054600160a060020a0316331461173d576040805160e560020a62461bcd02815260206004820152602480820152600080516020614735833981519152604482015260e160020a633bb732b902606482015290519081900360840190fd5b60005460a060020a900460ff1615156117b4576040805160e560020a62461bcd02815260206004820152603c602482015260008051602061471583398151915260448201527f7768656e2074686520636f6e7472616374206973207061757365642e00000000606482015290519081900360840190fd5b6000805474ff0000000000000000000000000000000000000000191681556040517f7805862f689e2f13df9f062ff482ad3ad112aca9e0847911ed832e158c525b339190a1565b60005460a060020a900460ff161561185f576040805160e560020a62461bcd02815260206004820152602481018290526000805160206147158339815191526044820152600080516020614695833981519152606482015290519081900360840190fd5b80600160008281526009602052604090205460ff16600681111561187f57fe5b14806118a75750600260008281526009602052604090205460ff1660068111156118a557fe5b145b1515611937576040805160e560020a62461bcd02815260206004820152604b602482015260008051602061465583398151915260448201527f64206d757374206861766520746865207374617465205375626d69747465642060648201527f6f7220417070726f766564000000000000000000000000000000000000000000608482015290519081900360a40190fd5b60008281526009602090815260408083206005015483526007909152902054600160a060020a031633146119db576040805160e560020a62461bcd02815260206004820152602481018290527f416e206576656e742063616e206f6e6c792062652063616e63656c656420627960448201527f2074686520627573696e657373206f776e65722077686f206164646564206974606482015290519081900360840190fd5b600082815260096020908152604091829020600201805483518184028101840190945280845260609392830182828015611a3e57602002820191906000526020600020905b8154600160a060020a03168152600190910190602001808311611a20575b5050835193945050600083119150611a57905057600080fd5b6000848152600960208190526040822001548290811515611a7457fe5b04905060005b82811015611ac65781600b60008684815181101515611a9557fe5b6020908102909101810151600160a060020a0316825281019190915260400160002080549091019055600101611a7a565b506000600960008781526020019081526020016000206009015483830203905080600b6000866000815181101515611afa57fe5b602090810291909101810151600160a060020a0316825281810192909252604090810160009081208054949094019093558883526009825291829020805460ff19166004179055815188815291517fe933406ce445ea24d84ca4529e514adc8926e62cdc8b5a67c568c9fd578f1a8a9281900390910190a1505050505050565b60005460a060020a900460ff1615611bde576040805160e560020a62461bcd02815260206004820152602481018290526000805160206147158339815191526044820152600080516020614695833981519152606482015290519081900360840190fd5b336000908152600a602052604090205460ff161515600114611c70576040805160e560020a62461bcd02815260206004820152602e60248201527f4f6e6c7920636f6d6d756e697479206d616e61676572732063616e2063616c6c60448201527f20746869732066756e6374696f6e000000000000000000000000000000000000606482015290519081900360840190fd5b60018054600090815260066020526040808220805460ff191684179055825482529020611c9f9101838361455e565b506001805460009081526006602090815260408083206002019290925591548151908152905133927f188798375ad155512643a400bee872fd90957e7add156fe1f4605991fef997b2928290030190a250506001805481019055565b60005460a060020a900460ff1615611d5f576040805160e560020a62461bcd02815260206004820152602481018290526000805160206147158339815191526044820152600080516020614695833981519152606482015290519081900360840190fd5b600081815260086020526040902054600160a060020a03163314611df2576040805160e560020a62461bcd028152602060048201526024808201527f4f6e6c7920746865206f776e65722063616e2072656d6f76652074686569722060448201527f726f6f6d00000000000000000000000000000000000000000000000000000000606482015290519081900360840190fd5b60008181526008602052604081208054600160a060020a031916815590611e1c60018301826145dc565b506000600291909101556040805182815290517fa1cc464559b2ee87b82a169589983e5159ea8fd08df48409cd4a871394c6f5ed9181900360200190a150565b60005460a060020a900460ff1615611ec0576040805160e560020a62461bcd02815260206004820152602481018290526000805160206147158339815191526044820152600080516020614695833981519152606482015290519081900360840190fd5b80600260008281526009602052604090205460ff166006811115611ee057fe5b14611f49576040805160e560020a62461bcd02815260206004820152603e602482015260008051602061465583398151915260448201527f64206d75737420686176652074686520737461746520417070726f7665640000606482015290519081900360840190fd5b600554600083815260096020526040902060088101546007909101540101421015611fe4576040805160e560020a62461bcd02815260206004820152602e60248201527f4576656e74732063616e206f6e6c792062652076616c696461746564206f6e6360448201527f6520746865792073746172746564000000000000000000000000000000000000606482015290519081900360840190fd5b60008281526009602090815260409182902060020180548351818402810184019094528084526060939283018282801561204757602002820191906000526020600020905b8154600160a060020a03168152600190910190602001808311612029575b5050835160035494955093159250612193915050576000848152600960208181526040808420600a81018054600483018054885260088087528589206002808201549154600160a060020a03168b52600b8952878b2080546064938490049096028d02909501909455935491548952865293872001548a875294909352600d015492829004919092046001030302905b828110156121235781600b600086848151811015156120f257fe5b6020908102909101810151600160a060020a03168252810191909152604001600020805490910190556001016120d7565b50506000848152600960208181526040808420600a810154600482015486526008845282862060020154600d8301549583015460059093015487526007855283872054600160a060020a03168752600b909452919094208054606490940492909203028402909201019055612258565b6000848152600960205260408120600a810154600d909101546064900460010302905b828110156122025781600b600086848151811015156121d157fe5b6020908102909101810151600160a060020a03168252810191909152604001600020805490910190556001016121b6565b50506000848152600960208181526040808420600a810154600d8201549482015460059092015486526007845282862054600160a060020a03168652600b90935293208054606490930490910284029092010190555b600084815260096020908152604091829020805460ff19166006179055815186815291517f97796dd0e75af3412e6615806d09e50e16b04093445f02241e53592d247367f99281900390910190a150505050565b60005460a060020a900460ff1681565b600054600160a060020a0316331461231b576040805160e560020a62461bcd02815260206004820152602480820152600080516020614735833981519152604482015260e160020a633bb732b902606482015290519081900360840190fd5b60008054604051600160a060020a03909116917ff8df31144d9c2f0f6b59d69b8b98abd5459d07f2742c4df920b25aae33c6482091a260008054600160a060020a0319169055565b60005460a060020a900460ff16156123c7576040805160e560020a62461bcd02815260206004820152602481018290526000805160206147158339815191526044820152600080516020614695833981519152606482015290519081900360840190fd5b80600260008281526009602052604090205460ff1660068111156123e757fe5b14612450576040805160e560020a62461bcd02815260206004820152603e602482015260008051602061465583398151915260448201527f64206d75737420686176652074686520737461746520417070726f7665640000606482015290519081900360840190fd5b6000828152600960205260409020600e01544211801561248657506000828152600960205260409020600b810154600290910154105b1515612528576040805160e560020a62461bcd02815260206004820152605960248201527f4576656e74732063616e206f6e6c792062652064726f70706564206f6e63652060448201527f74686520646561646c696e652070617373656420616e6420746865726520617260648201527f65206e6f7420656e6f756768207061727469636970616e747300000000000000608482015290519081900360a40190fd5b600082815260096020818152604080842080840154600582015486526007845282862054600160a060020a03168652600b84528286208054909101905593869052918152600290920180548251818502810185019093528083526060938301828280156125be57602002820191906000526020600020905b8154600160a060020a031681526001909101906020018083116125a0575b505083516000888152600960205260408120600a0154959650909493509150505b8281101561262b5781600b600086848151811015156125fa57fe5b6020908102909101810151600160a060020a03168252810191909152604001600020805490910190556001016125df565b50600085815260096020908152604091829020805460ff19166003179055815187815291517f29eebd1c22b4dfa318ef20f4303a288f22385512648fde76a9537f512d914fe89281900390910190a15050505050565b60005460a060020a900460ff16156126e5576040805160e560020a62461bcd02815260206004820152602481018290526000805160206147158339815191526044820152600080516020614695833981519152606482015290519081900360840190fd5b336000908152600a602052604090205460ff161515600114612777576040805160e560020a62461bcd02815260206004820152602e60248201527f4f6e6c7920636f6d6d756e697479206d616e61676572732063616e2063616c6c60448201527f20746869732066756e6374696f6e000000000000000000000000000000000000606482015290519081900360840190fd5b84600560008281526009602052604090205460ff16600681111561279757fe5b14612800576040805160e560020a62461bcd02815260206004820152603e602482015260008051602061465583398151915260448201527f64206d7573742068617665207468652073746174652044697370757465640000606482015290519081900360840190fd5b60008681526009602052604081206002015490805b8281101561283f5787878281811061282957fe5b6020029190910135929092019150600101612815565b50600088815260096020819052604090912090810154600a820154600290920154838801870192020114612897576040805160e560020a62461bcd028152602060048201526000602482015290519081900360640190fd5b60005b8281101561290f578787828181106128ae57fe5b90506020020135600b6000600960008d8152602001908152602001600020600201848154811015156128dc57fe5b6000918252602080832090910154600160a060020a0316835282019290925260400190208054909101905560010161289a565b5060008881526009602090815260408083206005015483526007825280832054600160a060020a03168352600b9091529020805486019055600354156129875760008881526009602090815260408083206004015483526008825280832054600160a060020a03168352600b90915290208054850190555b600088815260096020908152604091829020805460ff1916600617905581518a8152915133927fe9273360288c36c0f677b59bb8c050cb3a69985a21a3c740cc6d49a4f4fba32092908290030190a25050505050505050565b600054600160a060020a03163314612a3f576040805160e560020a62461bcd02815260206004820152602480820152600080516020614735833981519152604482015260e160020a633bb732b902606482015290519081900360840190fd5b60005460a060020a900460ff1615612aa3576040805160e560020a62461bcd02815260206004820152602481018290526000805160206147158339815191526044820152600080516020614695833981519152606482015290519081900360840190fd5b6000805474ff0000000000000000000000000000000000000000191660a060020a1781556040517f6985a02210a168e66602d3235cb6db0e70f92b3ba4d376a33c0f3d9434bff6259190a1565b60005460a060020a900460ff1615612b54576040805160e560020a62461bcd02815260206004820152602481018290526000805160206147158339815191526044820152600080516020614695833981519152606482015290519081900360840190fd5b600081815260076020526040902054600160a060020a03163314612be7576040805160e560020a62461bcd028152602060048201526024808201527f4f6e6c7920746865206f776e65722063616e2072656d6f76652061206275736960448201527f6e65737300000000000000000000000000000000000000000000000000000000606482015290519081900360840190fd5b60008181526007602052604081208054600160a060020a031916815590612c1160018301826145dc565b50506040805182815290517fd76625b82a7c639d5ddef8d5ad7d640db468a74050d714dfcd181a61239abdca9181900360200190a150565b60005460a060020a900460ff1615612cad576040805160e560020a62461bcd02815260206004820152602481018290526000805160206147158339815191526044820152600080516020614695833981519152606482015290519081900360840190fd5b600088815260066020526040902054889060ff161515600114612d1c576040805160e560020a62461bcd02815260206004820152602d60248201526000805160206146b583398151915260448201526000805160206146d5833981519152606482015290519081900360840190fd5b6000898152600660209081526040808320338452600301909152902054899060ff161515600114612dbd576040805160e560020a62461bcd02815260206004820152603d60248201527f4f6e6c792061206d656d626572206f662074686520676976656e20636f6d6d7560448201527f6e69747949642063616e2063616c6c20746869732066756e6374696f6e000000606482015290519081900360840190fd5b8242108015612dcb57508783105b1515612e47576040805160e560020a62461bcd02815260206004820152603f60248201527f4576656e74732063616e206f6e6c7920626520706f737465642077697468206160448201527f2066757475726520646561646c696e6520616e64207374617274206461746500606482015290519081900360840190fd5b848611612ec4576040805160e560020a62461bcd02815260206004820152603d60248201527f427573696e657373206f776e657220706c65646765206d75737420626520677260448201527f6561746572207468616e207061727469636970616e7420706c65646765000000606482015290519081900360840190fd5b881580612ef2575060008a81526006602090815260408083208c845260050190915290205460ff1615156001145b1515612f94576040805160e560020a62461bcd02815260206004820152604e60248201527f5468652070726f766964656420726f6f6d49642073686f756c6420626520656960448201527f74686572203020286e6f20726f6f6d29206f72206f6e6520616464656420746f60648201527f2074686520636f6d6d756e697479000000000000000000000000000000000000608482015290519081900360a40190fd5b348514613013576040805160e560020a62461bcd028152602060048201526053602482015260008051602061467583398151915260448201526000805160206146f583398151915260648201527f207061727469636970616e7420706c6564676500000000000000000000000000608482015290519081900360a40190fd5b8960096000600454815260200190815260200160002060060181905550600660008b815260200190815260200160002060040160045490806001815401808255809150509060018203906000526020600020016000909192909190915055508b8b600960006004548152602001908152602001600020600301919061309992919061455e565b5060048054600090815260096020818152604080842085018e9055845484528084206007018d9055845484528084206008018c90558454845280842083018b905584548452808420600a018a9055845484528084206001600c90910181905585548552818520600d018a905585548552818520600e0189905585548552818520338087529082018452828620805460ff199081168417909155875487529484528286206002018054928301815586528386209091018054600160a060020a0319169091179055845484529283902080549092169091559154815190815290517f7994e78faf536b60eafa6c7177d6c226e58a026fe0748fb075a65cd23b1f3abc929181900390910190a1505060048054600101905550505050505050505050565b600a6020526000908152604090205460ff1681565b60005460a060020a900460ff1615613233576040805160e560020a62461bcd02815260206004820152602481018290526000805160206147158339815191526044820152600080516020614695833981519152606482015290519081900360840190fd5b336000908152600a602052604090205460ff1615156001146132c5576040805160e560020a62461bcd02815260206004820152602e60248201527f4f6e6c7920636f6d6d756e697479206d616e61676572732063616e2063616c6c60448201527f20746869732066756e6374696f6e000000000000000000000000000000000000606482015290519081900360840190fd5b6000818152600660205260408120805460ff19168155906132e960018301826145dc565b60028201600090556004820160006133019190614620565b505060408051828152905133917ff258dae9a0e6d562f13c1f8ed92388a4ac5e252fae40502c3af503eb3ab12fa9919081900360200190a250565b60005460a060020a900460ff16156133a0576040805160e560020a62461bcd02815260206004820152602481018290526000805160206147158339815191526044820152600080516020614695833981519152606482015290519081900360840190fd5b600081815260066020526040902054819060ff16151560011461340f576040805160e560020a62461bcd02815260206004820152602d60248201526000805160206146b583398151915260448201526000805160206146d5833981519152606482015290519081900360840190fd5b600082815260066020818152604080842033808652600382018452828620805460ff1916600190811790915595889052938352600201805490940190935582518581529081019190915281517fa35303f560f6a6fab0df72c9350f0a30a7b4a6de25b15c9bc271b203741056e6929181900390910190a15050565b60005460a060020a900460ff16156134ee576040805160e560020a62461bcd02815260206004820152602481018290526000805160206147158339815191526044820152600080516020614695833981519152606482015290519081900360840190fd5b600280546000908152600760205260408082208054600160a060020a03191633179055915481522061352490600101838361455e565b5060025460408051918252517f0b24fe960f18dc924afbf9ee4c54b3c3b83ff90d6c098720b48ff5deecfaaff29181900360200190a15050600280546001019055565b6007602090815260009182526040918290208054600180830180548651600261010094831615949094026000190190911692909204601f8101869004860283018601909652858252600160a060020a039092169492939092908301828280156136115780601f106135e657610100808354040283529160200191613611565b820191906000526020600020905b8154815290600101906020018083116135f457829003601f168201915b5050505050905082565b60005460a060020a900460ff161561367f576040805160e560020a62461bcd02815260206004820152602481018290526000805160206147158339815191526044820152600080516020614695833981519152606482015290519081900360840190fd5b60008a8152600660205260409020548a9060ff1615156001146136ee576040805160e560020a62461bcd02815260206004820152602d60248201526000805160206146b583398151915260448201526000805160206146d5833981519152606482015290519081900360840190fd5b60008a815260076020526040902054600160a060020a031633146137a8576040805160e560020a62461bcd02815260206004820152604860248201527f4f6e6c7920746865206f776e6572206f662074686520676976656e206275736960448201527f6e65737349642063616e2061646420616e206576656e74206173736f6369617460648201527f656420746f206974000000000000000000000000000000000000000000000000608482015290519081900360a40190fd5b81421080156137b657508782105b1515613832576040805160e560020a62461bcd02815260206004820152603f60248201527f4576656e74732063616e206f6e6c7920626520706f737465642077697468206160448201527f2066757475726520646561646c696e6520616e64207374617274206461746500606482015290519081900360840190fd5b8486116138af576040805160e560020a62461bcd02815260206004820152603d60248201527f427573696e657373206f776e657220706c65646765206d75737420626520677260448201527f6561746572207468616e207061727469636970616e7420706c65646765000000606482015290519081900360840190fd5b8815806138dd575060008b81526006602090815260408083208c845260050190915290205460ff1615156001145b151561397f576040805160e560020a62461bcd02815260206004820152604e60248201527f5468652070726f766964656420726f6f6d49642073686f756c6420626520656960448201527f74686572203020286e6f20726f6f6d29206f72206f6e6520616464656420746f60648201527f2074686520636f6d6d756e697479000000000000000000000000000000000000608482015290519081900360a40190fd5b3486146139fe576040805160e560020a62461bcd028152602060048201526056602482015260008051602061467583398151915260448201526000805160206146f583398151915260648201527f20627573696e657373206f776e657220706c6564676500000000000000000000608482015290519081900360a40190fd5b8a60096000600454815260200190815260200160002060060181905550600660008c815260200190815260200160002060040160045490806001815401808255809150509060018203906000526020600020016000909192909190915055508c8c6009600060045481526020019081526020016000206003019190613a8492919061455e565b506004805460009081526009602081815260408084206005018f90558454845280842085018e9055845484528084206007018d9055845484528084206008018c9055845484528084209092018a905583548352818320600a0189905583548352818320600b0188905583548352818320600c0183905583548352818320600d0187905583548352818320600e018690558354835291819020805460ff191660011790559154825190815291517f0b2304b5d349e621a8ec4e06ec0dc02515b6694cd021d508232feb9992aa53d19281900390910190a150506004805460010190555050505050505050505050565b60005460609060a060020a900460ff1615613bd9576040805160e560020a62461bcd02815260206004820152602481018290526000805160206147158339815191526044820152600080516020614695833981519152606482015290519081900360840190fd5b600082815260066020526040902054829060ff161515600114613c48576040805160e560020a62461bcd02815260206004820152602d60248201526000805160206146b583398151915260448201526000805160206146d5833981519152606482015290519081900360840190fd5b6000838152600660209081526040808320338452600301909152902054839060ff161515600114613ce9576040805160e560020a62461bcd02815260206004820152603d60248201527f4f6e6c792061206d656d626572206f662074686520676976656e20636f6d6d7560448201527f6e69747949642063616e2063616c6c20746869732066756e6374696f6e000000606482015290519081900360840190fd5b600084815260066020908152604091829020600401805483518184028101840190945280845260609392830182828015613d4257602002820191906000526020600020905b815481526020019060010190808311613d2e575b50939998505050505050505050565b60005460a060020a900460ff1615613db5576040805160e560020a62461bcd02815260206004820152602481018290526000805160206147158339815191526044820152600080516020614695833981519152606482015290519081900360840190fd5b816000808281526009602052604090205460ff166006811115613dd457fe5b14613e3d576040805160e560020a62461bcd02815260206004820152603f602482015260008051602061465583398151915260448201527f64206d7573742068617665207468652073746174652053756767657374656400606482015290519081900360840190fd5b600082815260076020526040902054600160a060020a03163314613ed1576040805160e560020a62461bcd02815260206004820152603a60248201527f4f6e6c7920746865206f776e6572206f662074686520676976656e206275736960448201527f6e65737349642063616e2061636365707420616e206576656e74000000000000606482015290519081900360840190fd5b600083815260096020819052604090912001543414613f62576040805160e560020a62461bcd028152602060048201526053602482015260008051602061467583398151915260448201526000805160206146f583398151915260648201527f207061727469636970616e7420706c6564676500000000000000000000000000608482015290519081900360a40190fd5b6000838152600960209081526040808320600501859055600454835291829020805460ff19166002179055815185815290810184905281517f327e9fa6b41de3f04c1e5d36d2bfd64cc4a2381c96ba4982e4cc76be2e4020eb929181900390910190a1505050565b60005460a060020a900460ff161561402e576040805160e560020a62461bcd02815260206004820152602481018290526000805160206147158339815191526044820152600080516020614695833981519152606482015290519081900360840190fd5b600054600160a060020a0316331461408d576040805160e560020a62461bcd02815260206004820152602480820152600080516020614735833981519152604482015260e160020a633bb732b902606482015290519081900360840190fd5b600160a060020a0381166000818152600a6020908152604091829020805460ff19169055815192835290517fb41e86af3a4b7ff2c70e0a764aa847deee20eb44bfbf1b408b0afc7bc269df4d9281900390910190a150565b600054600160a060020a031681565b336000818152600b6020526040808220805490839055905190929183156108fc02918491818181858888f19350505050158015614135573d6000803e3d6000fd5b5050565b425b90565b60005460a060020a900460ff16156141a2576040805160e560020a62461bcd02815260206004820152602481018290526000805160206147158339815191526044820152600080516020614695833981519152606482015290519081900360840190fd5b80600160008281526009602052604090205460ff1660068111156141c257fe5b14806141ea5750600260008281526009602052604090205460ff1660068111156141e857fe5b145b151561427a576040805160e560020a62461bcd02815260206004820152604b602482015260008051602061465583398151915260448201527f64206d757374206861766520746865207374617465205375626d69747465642060648201527f6f7220417070726f766564000000000000000000000000000000000000000000608482015290519081900360a40190fd5b600082815260096020908152604080832033845260019081019092529091205460ff1615151461431a576040805160e560020a62461bcd02815260206004820152603160248201527f4f6e6c792061207061727469636970616e742063616e206c6561766520616e2060448201527f6576656e742074686579206a6f696e6564000000000000000000000000000000606482015290519081900360840190fd5b6000828152600960209081526040808320600a81015460059091015484526007835281842054600160a060020a03168452600b83529281902080549093019092558151848152339181019190915281517fac3f04dc313809914388d22d8ef9fdb1ebd73731506e581d3720ea08510bddc0929181900390910190a15050565b6006602090815260009182526040918290208054600180830180548651600261010094831615949094026000190190911692909204601f810186900486028301860190965285825260ff909216949293909290830182828015610dfb5780601f10610dd057610100808354040283529160200191610dfb565b600054600160a060020a03163314614471576040805160e560020a62461bcd02815260206004820152602480820152600080516020614735833981519152604482015260e160020a633bb732b902606482015290519081900360840190fd5b61447a8161447d565b50565b600160a060020a0381161515614503576040805160e560020a62461bcd02815260206004820152602c60248201527f43616e6e6f74207472616e73666572204f776e65727368697020746f2061646460448201527f726573732030783030302e2e0000000000000000000000000000000000000000606482015290519081900360840190fd5b60008054604051600160a060020a03808516939216917f8be0079c531659141344cd1fd0a4f28419497f9722a3daafe3b4186f6b6457e091a360008054600160a060020a031916600160a060020a0392909216919091179055565b828054600181600116156101000203166002900490600052602060002090601f016020900481019282601f1061459f5782800160ff198235161785556145cc565b828001600101855582156145cc579182015b828111156145cc5782358255916020019190600101906145b1565b506145d892915061463a565b5090565b50805460018160011615610100020316600290046000825580601f10614602575061447a565b601f01602090049060005260206000209081019061447a919061463a565b508054600082559060005260206000209081019061447a91905b61413b91905b808211156145d8576000815560010161464056fe546865206576656e7420776974682074686520676976656e205f6576656e744954686520616d6f756e74206f6620657468657220617474616368656420746f207768656e2074686520636f6e7472616374206973206e6f74207061757365642e54686520636f6d6d756e69747920776974682074686520676976656e206964206d7573742062652076616c6964000000000000000000000000000000000000007468652066756e6374696f6e2063616c6c206d757374206d61746368207468655468652066756e6374696f6e206d61792062652063616c6c6564206f6e6c792046756e6374696f6e2063616e206f6e6c792062652063616c6c6564206279206fa165627a7a723058200a14253a8af026e7de156f799938e50d94605b7b19c3bc3255a3cf79be7e40440029",
  "source": "pragma solidity 0.5.0;\n\nimport \"./Pausable.sol\";\n\n/**\n * @title Pledgeo\n * @author loic1\n * @notice You should use this contract for development purposes only\n * @dev Simple smart contract which allows to establich a platform that facilitates business in remote areas\n */\ncontract Pledgeo is Pausable {\n    \n    /* State variables */\n\n    uint private communityId = 0;\n    uint private businessId = 0;\n    uint private roomId = 1;\n    uint private eventId = 0;\n    uint private complaintSubmissionDelay = 86400;\n\n    mapping(uint => Community) public communities;\n    mapping(uint => Business) public businesses;\n    mapping(uint => Room) public rooms;\n    mapping(uint => Event) public events;\n    mapping(address => bool) public platformManagers;\n    mapping(address => uint) private pendingWithdrawals;\n\n    /* Structs and enums */\n\n    struct Community {\n        bool valid;\n        string description;\n        uint nbOfMembers;\n        mapping(address => bool) members;\n        uint[] events;\n        mapping(uint => bool) rooms;\n    }\n\n    struct Business {\n        address payable owner;\n        string description;\n    }\n\n    struct Room {\n        address payable owner;\n        string description;\n        uint compensationRate;\n    }\n\n    struct Event {\n        State state;\n        mapping(address => bool) participants;\n        address payable [] listOfParticipants;\n        string description;\n        uint roomId;\n        uint businessId;\n        uint communityId;\n        uint startDate;\n        uint duration;\n        uint businessOwnerPledge;\n        uint participantPledge;\n        uint minNbOfParticipants;\n        uint nbOfParticipants;\n        uint transportationCommissionRate;\n        uint deadline;\n        mapping(address => string) complaints;\n    }\n\n    enum State {Suggested, Submitted, Approved, Dropped, Cancelled, Disputed, Concluded}\n\n    /* Modifiers */\n    \n    modifier validCommunity(uint _communityId) {\n        require(communities[_communityId].valid == true, \"The community with the given id must be valid\");\n        _;\n    }\n    modifier onlyCommunityMember(uint _communityId) {\n        require(communities[_communityId].members[msg.sender] == true, \"Only a member of the given communityId can call this function\");\n        _;\n    }\n    modifier suggestedOrSubmittedEvent(uint _eventId) {\n        require(events[_eventId].state == State.Suggested || events[_eventId].state == State.Submitted, \"The event with the given _eventId must have the state Suggested or Submitted\");\n        _;\n    }    \n    modifier submittedOrApprovedEvent(uint _eventId) {\n        require(events[_eventId].state == State.Submitted || events[_eventId].state == State.Approved, \"The event with the given _eventId must have the state Submitted or Approved\");\n        _;\n    }\n    modifier suggestedEvent(uint _eventId) {\n        require(events[_eventId].state == State.Suggested, \"The event with the given _eventId must have the state Suggested\");\n        _;\n    }\n    modifier submittedEvent(uint _eventId) {\n        require(events[_eventId].state == State.Submitted, \"The event with the given _eventId must have the state Submitted\");\n        _;\n    }\n    modifier approvedEvent(uint _eventId) {\n        require(events[_eventId].state == State.Approved, \"The event with the given _eventId must have the state Approved\");\n        _;\n    }\n    modifier droppedEvent(uint _eventId) {\n        require(events[_eventId].state == State.Dropped, \"The event with the given _eventId must have the state Dropped\");\n        _;\n    }\n    modifier disputedEvent(uint _eventId) {\n        require(events[_eventId].state == State.Disputed, \"The event with the given _eventId must have the state Disputed\");\n        _;\n    }\n    modifier onlyPlatformManager() {\n        require(platformManagers[msg.sender] == true, \"Only community managers can call this function\");\n        _;\n    }\n\n    /* Events */\n\n    event AddPlatformManager(address manager);\n    event RemovePlatformManager(address manager);\n\n    event AddCommunity(uint communityId, address indexed manager);\n    event JoinCommunity(uint communityId, address member);\n    event RemoveCommunity(uint communityId, address indexed manager);\n\n    event AddBusiness(uint businessId);\n    event RemoveBusiness(uint businessId); \n\n    event AddRoom(uint roomId);\n    event RemoveRoom(uint roomId);\n\n    event SuggestEvent(uint eventId);\n    event AcceptEvent(uint eventId, uint businessId);\n    event SubmitEvent(uint eventId);\n    event JoinEvent(uint eventId, address participant);\n    event CancelEvent(uint eventId);\n    event LeaveEvent(uint eventId, address participant);\n    event DropEvent(uint eventId);\n    event ConcludeEvent(uint eventId);\n    event SubmitComplaint(uint eventId, address complainant);\n    event ConcludeEventWithComplaints(uint eventId, address indexed platformManager);\n\n    /* Functions */\n\n    /**\n    * @dev Fallback function\n    */\n    function() external {\n        revert(\"Fallback function\");\n    }\n\n    /**\n    * @dev addPlatformManager(): add an account to the list of platform managers\n    * @param _manager address of the manager to add\n    */\n    function addPlatformManager(address _manager) external whenNotPaused onlyOwner {\n        platformManagers[_manager] = true;\n        emit AddPlatformManager(_manager);\n    }\n\n    /**\n    * @dev removePlatformManager(): remove an account from the list of platform managers\n    * @param _manager address of the manager to remove\n    */\n    function removePlatformManager(address _manager) external whenNotPaused onlyOwner {\n        delete platformManagers[_manager];\n        emit RemovePlatformManager(_manager);\n    }\n\n    /**\n    * @dev addCommunity(): add a new Community\n    * @param _description description of the Community to add (may include any necessary information like website links)\n    */\n    function addCommunity(string calldata _description) external whenNotPaused onlyPlatformManager {\n        communities[communityId].valid = true;\n        communities[communityId].description = _description;\n        communities[communityId].nbOfMembers = 0;\n        emit AddCommunity(communityId, msg.sender);\n        communityId += 1;\n    }\n\n    /**\n    * @dev joinCommunity(): join a Community\n    * @param _communityId Community identifier\n    */\n    function joinCommunity(uint _communityId) external whenNotPaused validCommunity(_communityId) {\n        communities[_communityId].members[msg.sender] = true;\n        communities[_communityId].nbOfMembers += 1;\n        emit JoinCommunity(_communityId, msg.sender);\n    }\n\n    /**\n    * @dev removeCommunity(): remove a Community\n    * @param _communityId Community identifier\n    */    \n    function removeCommunity(uint _communityId) external whenNotPaused onlyPlatformManager {\n        delete communities[_communityId];\n        emit RemoveCommunity(_communityId, msg.sender);\n    }\n\n    /**\n    * @dev addBusiness(): add a new Business\n    * @param _description description of the Business to add (may include any necessary information)\n    */ \n    function addBusiness(string calldata _description) external whenNotPaused {\n        businesses[businessId].owner = msg.sender;\n        businesses[businessId].description = _description;\n        emit AddBusiness(businessId);\n        businessId += 1;\n    }\n\n    /**\n    * @dev addBusiness(): add a new Business\n    * @param _businessId Business identifier\n    */ \n    function removeBusiness(uint _businessId) external whenNotPaused {\n        require(businesses[_businessId].owner == msg.sender, \"Only the owner can remove a business\");\n        delete businesses[_businessId];\n        emit RemoveBusiness(_businessId);\n    }\n\n    /**\n    * @dev addRoom(): add a new Room\n    * @param _description description of the Room to add (may include any necessary information)\n    * @param _communityId Community identifier\n    * @param _compensationRate compensation rate of the pledge asked by the owner to provide their Room to the Community\n    */ \n    function addRoom(\n        string calldata _description,\n        uint _communityId,\n        uint _compensationRate\n        )\n        external\n        whenNotPaused\n        validCommunity(_communityId)\n        onlyCommunityMember(_communityId) {\n\n        rooms[roomId].owner = msg.sender;\n        rooms[roomId].description = _description;\n        rooms[roomId].compensationRate = _compensationRate;\n        communities[_communityId].rooms[roomId] = true;\n        emit AddRoom(roomId);\n        roomId += 1;\n    }\n\n    /**\n    * @dev removeRoom(): remove a Room\n    * @param _roomId Room identifier\n    */ \n    function removeRoom(uint _roomId) external whenNotPaused {\n        require(rooms[_roomId].owner == msg.sender, \"Only the owner can remove their room\");\n        delete rooms[_roomId];\n        emit RemoveRoom(_roomId);\n    }\n\n    /**\n    * @dev suggestEvent(): suggest a new Event\n    * @param _description description of the Event (may include any necessary information like website links)\n    * @param _communityId identifier of the Community to suggest the Event into\n    * @param _roomId identifier of the Room the Event is set to take place into (0 is no room)\n    * @param _startDate start date of the event in epoch seconds\n    * @param _duration duration of the event in epoch seconds\n    * @param _businessOwnerPledge amount of wei asked from the business owner\n    * @param _participantPledge amount of wei asked from the participants\n    * @param _transportationCommissionRate commission rate asked from the participants to secure the transportation cost reimbursement\n    * @param _deadline end date for the event to be accepted by a business owner in epoch seconds\n    */ \n    function suggestEvent(\n        string calldata _description,\n        uint _communityId,\n        uint _roomId,\n        uint _startDate,\n        uint _duration,\n        uint _businessOwnerPledge,\n        uint _participantPledge,\n        uint _transportationCommissionRate,\n        uint _deadline\n        )\n        external\n        payable\n        whenNotPaused\n        validCommunity(_communityId)\n        onlyCommunityMember(_communityId) {\n        \n        require(now < _deadline && _deadline < _startDate, \"Events can only be posted with a future deadline and start date\");\n        require(_businessOwnerPledge > _participantPledge, \"Business owner pledge must be greater than participant pledge\");\n        require(_roomId == 0 || communities[_communityId].rooms[_roomId] == true, \"The provided roomId should be either 0 (no room) or one added to the community\");\n        require(msg.value == _participantPledge, \"The amount of ether attached to the function call must match the participant pledge\");\n        events[eventId].communityId = _communityId;\n        communities[_communityId].events.push(eventId);\n        events[eventId].description = _description;\n        events[eventId].roomId = _roomId;\n        events[eventId].startDate = _startDate;\n        events[eventId].duration = _duration;\n        events[eventId].businessOwnerPledge = _businessOwnerPledge;\n        events[eventId].participantPledge = _participantPledge;\n        events[eventId].nbOfParticipants = 1;\n        events[eventId].transportationCommissionRate = _transportationCommissionRate;\n        events[eventId].deadline = _deadline;\n        events[eventId].participants[msg.sender] = true;\n        events[eventId].listOfParticipants.push(msg.sender);\n        events[eventId].state = State.Suggested;\n        emit SuggestEvent(eventId);\n        eventId += 1;\n    }\n\n    /**\n    * @dev submitEvent(): submit a new Event\n    * @param _description description of the Event (may include any necessary information like webite links)\n    * @param _communityId identifier of the Community to suggest the Event into\n    * @param _businessId identifier of the Business which submits the Event\n    * @param _roomId identifier of the Room the Event is set to take place into (0 is no room)\n    * @param _startDate start date of the event in epoch seconds\n    * @param _duration duration of the event in epoch seconds\n    * @param _businessOwnerPledge amount of wei asked from the business owner\n    * @param _participantPledge amount of wei asked from the participants\n    * @param _minNbOfParticipants minimum number of participants threshold for the Event state to be able to switch to Accepted\n    * @param _transportationCommissionRate commission rate asked from the participants to secure the transportation cost reimbursement\n    * @param _deadline end date for the event to be accepted by a business owner in epoch seconds\n    */ \n    function submitEvent(\n        string calldata _description,\n        uint _communityId,\n        uint _businessId,\n        uint _roomId,\n        uint _startDate,\n        uint _duration,\n        uint _businessOwnerPledge,\n        uint _participantPledge,\n        uint _minNbOfParticipants,\n        uint _transportationCommissionRate,\n        uint _deadline\n        )\n        external\n        payable\n        whenNotPaused\n        validCommunity(_communityId) {\n        \n        require(businesses[_businessId].owner == msg.sender, \"Only the owner of the given businessId can add an event associated to it\");\n        require(now < _deadline && _deadline < _startDate, \"Events can only be posted with a future deadline and start date\");\n        require(_businessOwnerPledge > _participantPledge, \"Business owner pledge must be greater than participant pledge\");\n        require(_roomId == 0 || communities[_communityId].rooms[_roomId] == true, \"The provided roomId should be either 0 (no room) or one added to the community\");\n        require(msg.value == _businessOwnerPledge, \"The amount of ether attached to the function call must match the business owner pledge\");\n        events[eventId].communityId = _communityId;\n        communities[_communityId].events.push(eventId);\n        events[eventId].description = _description;\n        events[eventId].businessId = _businessId;\n        events[eventId].roomId = _roomId;\n        events[eventId].startDate = _startDate;\n        events[eventId].duration = _duration;\n        events[eventId].businessOwnerPledge = _businessOwnerPledge;\n        events[eventId].participantPledge = _participantPledge;\n        events[eventId].minNbOfParticipants = _minNbOfParticipants;\n        events[eventId].nbOfParticipants = 0;\n        events[eventId].transportationCommissionRate = _transportationCommissionRate;\n        events[eventId].deadline = _deadline;\n        events[eventId].state = State.Submitted;\n        emit SubmitEvent(eventId);\n        eventId += 1;\n    }\n\n    /**\n    * @dev acceptEvent(): accept an Event\n    * @param _eventId Event identifier\n    * @param _businessId identifier of the Business which accepts the Event\n    */ \n    function acceptEvent(uint _eventId, uint _businessId) external payable whenNotPaused suggestedEvent(_eventId) {\n        require(businesses[_businessId].owner == msg.sender, \"Only the owner of the given businessId can accept an event\");        \n        require(msg.value == events[_eventId].businessOwnerPledge, \"The amount of ether attached to the function call must match the participant pledge\");\n        events[_eventId].businessId = _businessId;\n        events[eventId].state = State.Approved;\n        emit AcceptEvent(_eventId, _businessId);\n    }\n\n    /**\n    * @dev getEvents(): get all the Events of a Community\n    * @param _communityId Community identifier\n    * @return _events identifiers of all the Events in the Community\n    */ \n    function getEvents(\n        uint _communityId\n        )\n        external\n        view\n        whenNotPaused\n        validCommunity(_communityId)\n        onlyCommunityMember(_communityId)\n        returns(uint[] memory) {\n        \n        uint[] memory _events = communities[_communityId].events;\n        return _events;\n    }\n\n    /**\n    * @dev joinEvent(): join an Event\n    * @param _eventId Event identifier\n    */ \n    function joinEvent(uint _eventId) external payable whenNotPaused suggestedOrSubmittedEvent(_eventId) {\n        require(communities[events[_eventId].communityId].members[msg.sender] == true, \"\");\n        require(msg.value == events[_eventId].participantPledge, \"The amount of ether attached to the function call must match the participant pledge\");\n        events[_eventId].participants[msg.sender] = true;\n        events[_eventId].listOfParticipants.push(msg.sender);\n        events[_eventId].nbOfParticipants += 1;\n        if(events[eventId].state == State.Submitted && events[_eventId].listOfParticipants.length == events[_eventId].minNbOfParticipants) {\n            events[eventId].state = State.Approved;\n        }\n        emit JoinEvent(_eventId, msg.sender);\n    }\n\n    /**\n    * @dev cancelEvent(): cancel an Event\n    * @param _eventId Event identifier\n    */ \n    function cancelEvent(uint _eventId) external whenNotPaused submittedOrApprovedEvent(_eventId) {\n        require(businesses[events[_eventId].businessId].owner == msg.sender, \"An event can only be canceled by the business owner who added it\");\n        address payable [] memory listOfParticipants = events[_eventId].listOfParticipants;\n        uint nbOfParticipants = listOfParticipants.length;\n        require(nbOfParticipants > 0);\n        uint participantsRefund = events[_eventId].businessOwnerPledge / nbOfParticipants;\n        for (uint i = 0; i < nbOfParticipants; i++) {\n            pendingWithdrawals[listOfParticipants[i]] += participantsRefund;\n        }\n        uint remainder = participantsRefund * nbOfParticipants - events[_eventId].businessOwnerPledge;\n        pendingWithdrawals[listOfParticipants[0]] += remainder;\n        events[_eventId].state = State.Cancelled;\n        emit CancelEvent(_eventId);\n    }\n\n    /**\n    * @dev leaveEvent(): leave an Event\n    * @param _eventId Event identifier\n    */ \n    function leaveEvent(uint _eventId) external whenNotPaused submittedOrApprovedEvent(_eventId) {\n        require(events[_eventId].participants[msg.sender] == true, \"Only a participant can leave an event they joined\");\n        pendingWithdrawals[businesses[events[_eventId].businessId].owner] += events[_eventId].participantPledge;\n        emit LeaveEvent(_eventId, msg.sender);\n    }\n\n    /**\n    * @dev dropEvent(): drop an Event (may be called by anyone, in particular, it could be automated using Oraclize or Ethereum Alarm Clock))\n    * @param _eventId Event identifier\n    */\n    function dropEvent(uint _eventId) external whenNotPaused approvedEvent(_eventId) {\n        require(now > events[_eventId].deadline && events[_eventId].listOfParticipants.length < events[_eventId].minNbOfParticipants, \"Events can only be dropped once the deadline passed and there are not enough participants\"); \n        pendingWithdrawals[businesses[events[_eventId].businessId].owner] += events[_eventId].businessOwnerPledge;\n        address payable [] memory listOfParticipants = events[_eventId].listOfParticipants;\n        uint nbOfParticipants = listOfParticipants.length;\n        uint participantsRefund = events[_eventId].participantPledge;\n        for (uint i = 0; i < nbOfParticipants; i++) {\n            pendingWithdrawals[listOfParticipants[i]] += participantsRefund;\n        }\n        events[_eventId].state = State.Dropped;\n        emit DropEvent(_eventId);\n    } \n\n    /**\n    * @dev concludeEvent(): conclude an Event (may be called by anyone, in particular, it could be automated using Oraclize or Ethereum Alarm Clock))\n    * @param _eventId Event identifier\n    */\n    function concludeEvent(uint _eventId) external whenNotPaused approvedEvent(_eventId) {\n        require(now >= events[_eventId].startDate + events[_eventId].duration + complaintSubmissionDelay, \"Events can only be validated once they started\");\n        address payable [] memory listOfParticipants = events[_eventId].listOfParticipants;\n        uint nbOfParticipants = listOfParticipants.length;\n        if (roomId != 0) {\n            pendingWithdrawals[rooms[events[_eventId].roomId].owner] += rooms[events[_eventId].roomId].compensationRate / 100 * events[_eventId].participantPledge * nbOfParticipants;\n            uint participantsRefund = (1 - events[_eventId].transportationCommissionRate / 100 - rooms[events[_eventId].roomId].compensationRate / 100) * events[_eventId].participantPledge;\n            for (uint i = 0; i < nbOfParticipants; i++) {\n                pendingWithdrawals[listOfParticipants[i]] += participantsRefund;\n            }\n            pendingWithdrawals[businesses[events[_eventId].businessId].owner] += events[_eventId].businessOwnerPledge + (events[_eventId].transportationCommissionRate / 100 - rooms[events[_eventId].roomId].compensationRate) * events[_eventId].participantPledge * nbOfParticipants;\n        }\n        else {\n            uint participantsRefund = (1 - events[_eventId].transportationCommissionRate / 100) * events[_eventId].participantPledge; \n            for (uint i = 0; i < nbOfParticipants; i++) {\n                pendingWithdrawals[listOfParticipants[i]] += participantsRefund;\n            }\n            pendingWithdrawals[businesses[events[_eventId].businessId].owner] += events[_eventId].businessOwnerPledge + events[_eventId].transportationCommissionRate / 100 * events[_eventId].participantPledge * nbOfParticipants;\n        }\n        events[_eventId].state = State.Concluded;  \n        emit ConcludeEvent(_eventId);\n    }\n\n    /**\n    * @dev submitComplaint(): submit a complaint about an Event\n    * @param _eventId Event identifier\n    * @param _description description of the complaint (may include any necessery information)\n    */\n    function submitComplaint(uint _eventId, string calldata _description) external whenNotPaused approvedEvent(_eventId) {\n        require(events[_eventId].participants[msg.sender] == true || businesses[events[_eventId].businessId].owner == msg.sender, \"Only a participant or the business owner can submit a complaint\");\n        events[_eventId].complaints[msg.sender] = _description;\n        if (events[_eventId].state != State.Disputed) {\n            events[_eventId].state = State.Disputed;\n        }\n        emit SubmitComplaint(_eventId, msg.sender);\n    }\n\n    /**\n    * @dev concludeEventWithComplaints(): conclude a disputed Event\n    * @param _eventId Event identifier\n    * @param _participantRefunds list of the amounts in wei each partiipant will be refunded with\n    * @param _businessOwnerRefund amount in wei the business owner will be refunded with\n    * @param _roomOwnerRefund amount in wei the room owner will be refunded with\n    */\n    function concludeEventWithComplaints(\n        uint _eventId,\n        uint[] calldata _participantRefunds,\n        uint _businessOwnerRefund,\n        uint _roomOwnerRefund\n        )\n        external\n        whenNotPaused\n        onlyPlatformManager\n        disputedEvent(_eventId) {\n        \n        uint nbOfParticipants = events[_eventId].listOfParticipants.length;\n        uint totalParticipantsRefund = 0;\n        for (uint i = 0; i < nbOfParticipants; i++) {\n            totalParticipantsRefund += _participantRefunds[i];\n        }\n        require(totalParticipantsRefund + _businessOwnerRefund + _roomOwnerRefund == events[_eventId].listOfParticipants.length * events[_eventId].participantPledge + events[_eventId].businessOwnerPledge, \"\");\n        for (uint i = 0; i < nbOfParticipants; i++) {\n            pendingWithdrawals[events[_eventId].listOfParticipants[i]] += _participantRefunds[i];\n        }\n        pendingWithdrawals[businesses[events[_eventId].businessId].owner] += _businessOwnerRefund;\n        if (roomId != 0) {\n            pendingWithdrawals[rooms[events[_eventId].roomId].owner] += _roomOwnerRefund;\n        }\n        events[_eventId].state = State.Concluded;\n        emit ConcludeEventWithComplaints(_eventId, msg.sender);\n    }\n\n    /**\n    * @dev withdrawBalance(): withdraw the account's available balance\n    */\n    function withdrawalance() public {\n        uint amount = pendingWithdrawals[msg.sender];\n        pendingWithdrawals[msg.sender] = 0;\n        msg.sender.transfer(amount);\n    }\n\n    /**\n    * @dev currentTime(): Function used for Javascript tests\n    * @return time in epoch seconds\n    */\n    function currentTime() external view returns (uint256 _currentTime) {\n        return now;\n    }\n}",
  "sourcePath": "/home/loic/dev/pledgeo/contracts/Pledgeo.sol",
  "compiler": {
    "name": "solc",
    "version": "0.5.0+commit.1d4f565a.Emscripten.clang"
  },
  "schemaVersion": "3.0.1",
  "updatedAt": "2019-01-26T23:41:16.494Z",
  "devdoc": {
    "author": "loic1",
    "details": "Simple smart contract which allows to establich a platform that facilitates business in remote areas",
    "methods": {
      "acceptEvent(uint256,uint256)": {
        "details": "acceptEvent(): accept an Event",
        "params": {
          "_businessId": "identifier of the Business which accepts the Event",
          "_eventId": "Event identifier"
        }
      },
      "addBusiness(string)": {
        "details": "addBusiness(): add a new Business",
        "params": {
          "_description": "description of the Business to add (may include any necessary information)"
        }
      },
      "addCommunity(string)": {
        "details": "addCommunity(): add a new Community",
        "params": {
          "_description": "description of the Community to add (may include any necessary information like website links)"
        }
      },
      "addPlatformManager(address)": {
        "details": "addPlatformManager(): add an account to the list of platform managers",
        "params": {
          "_manager": "address of the manager to add"
        }
      },
      "addRoom(string,uint256,uint256)": {
        "details": "addRoom(): add a new Room",
        "params": {
          "_communityId": "Community identifier",
          "_compensationRate": "compensation rate of the pledge asked by the owner to provide their Room to the Community",
          "_description": "description of the Room to add (may include any necessary information)"
        }
      },
      "cancelEvent(uint256)": {
        "details": "cancelEvent(): cancel an Event",
        "params": {
          "_eventId": "Event identifier"
        }
      },
      "concludeEvent(uint256)": {
        "details": "concludeEvent(): conclude an Event (may be called by anyone, in particular, it could be automated using Oraclize or Ethereum Alarm Clock))",
        "params": {
          "_eventId": "Event identifier"
        }
      },
      "concludeEventWithComplaints(uint256,uint256[],uint256,uint256)": {
        "details": "concludeEventWithComplaints(): conclude a disputed Event",
        "params": {
          "_businessOwnerRefund": "amount in wei the business owner will be refunded with",
          "_eventId": "Event identifier",
          "_participantRefunds": "list of the amounts in wei each partiipant will be refunded with",
          "_roomOwnerRefund": "amount in wei the room owner will be refunded with"
        }
      },
      "currentTime()": {
        "details": "currentTime(): Function used for Javascript tests",
        "return": "time in epoch seconds"
      },
      "dropEvent(uint256)": {
        "details": "dropEvent(): drop an Event (may be called by anyone, in particular, it could be automated using Oraclize or Ethereum Alarm Clock))",
        "params": {
          "_eventId": "Event identifier"
        }
      },
      "getEvents(uint256)": {
        "details": "getEvents(): get all the Events of a Community",
        "params": {
          "_communityId": "Community identifier"
        },
        "return": "_events identifiers of all the Events in the Community"
      },
      "joinCommunity(uint256)": {
        "details": "joinCommunity(): join a Community",
        "params": {
          "_communityId": "Community identifier"
        }
      },
      "joinEvent(uint256)": {
        "details": "joinEvent(): join an Event",
        "params": {
          "_eventId": "Event identifier"
        }
      },
      "leaveEvent(uint256)": {
        "details": "leaveEvent(): leave an Event",
        "params": {
          "_eventId": "Event identifier"
        }
      },
      "pause()": {
        "details": "called by the owner to pause, triggers stopped state"
      },
      "removeBusiness(uint256)": {
        "details": "addBusiness(): add a new Business",
        "params": {
          "_businessId": "Business identifier"
        }
      },
      "removeCommunity(uint256)": {
        "details": "removeCommunity(): remove a Community",
        "params": {
          "_communityId": "Community identifier"
        }
      },
      "removePlatformManager(address)": {
        "details": "removePlatformManager(): remove an account from the list of platform managers",
        "params": {
          "_manager": "address of the manager to remove"
        }
      },
      "removeRoom(uint256)": {
        "details": "removeRoom(): remove a Room",
        "params": {
          "_roomId": "Room identifier"
        }
      },
      "renounceOwnership()": {
        "details": "Allows the current owner to relinquish control of the contract."
      },
      "submitComplaint(uint256,string)": {
        "details": "submitComplaint(): submit a complaint about an Event",
        "params": {
          "_description": "description of the complaint (may include any necessery information)",
          "_eventId": "Event identifier"
        }
      },
      "submitEvent(string,uint256,uint256,uint256,uint256,uint256,uint256,uint256,uint256,uint256,uint256)": {
        "details": "submitEvent(): submit a new Event",
        "params": {
          "_businessId": "identifier of the Business which submits the Event",
          "_businessOwnerPledge": "amount of wei asked from the business owner",
          "_communityId": "identifier of the Community to suggest the Event into",
          "_deadline": "end date for the event to be accepted by a business owner in epoch seconds",
          "_description": "description of the Event (may include any necessary information like webite links)",
          "_duration": "duration of the event in epoch seconds",
          "_minNbOfParticipants": "minimum number of participants threshold for the Event state to be able to switch to Accepted",
          "_participantPledge": "amount of wei asked from the participants",
          "_roomId": "identifier of the Room the Event is set to take place into (0 is no room)",
          "_startDate": "start date of the event in epoch seconds",
          "_transportationCommissionRate": "commission rate asked from the participants to secure the transportation cost reimbursement"
        }
      },
      "suggestEvent(string,uint256,uint256,uint256,uint256,uint256,uint256,uint256,uint256)": {
        "details": "suggestEvent(): suggest a new Event",
        "params": {
          "_businessOwnerPledge": "amount of wei asked from the business owner",
          "_communityId": "identifier of the Community to suggest the Event into",
          "_deadline": "end date for the event to be accepted by a business owner in epoch seconds",
          "_description": "description of the Event (may include any necessary information like website links)",
          "_duration": "duration of the event in epoch seconds",
          "_participantPledge": "amount of wei asked from the participants",
          "_roomId": "identifier of the Room the Event is set to take place into (0 is no room)",
          "_startDate": "start date of the event in epoch seconds",
          "_transportationCommissionRate": "commission rate asked from the participants to secure the transportation cost reimbursement"
        }
      },
      "transferOwnership(address)": {
        "details": "Allows the current owner to transfer control of the contract to a newOwner.",
        "params": {
          "_newOwner": "The address to transfer ownership to."
        }
      },
      "unpause()": {
        "details": "called by the owner to unpause, returns to normal state"
      },
      "withdrawalance()": {
        "details": "withdrawBalance(): withdraw the account's available balance"
      }
    },
    "title": "Pledgeo"
  },
  "userdoc": {
    "methods": {
      "renounceOwnership()": {
        "notice": "Renouncing to ownership will leave the contract without an owner. It will not be possible to call the functions with the `onlyOwner` modifier anymore."
      }
    },
    "notice": "You should use this contract for development purposes only"
  }
}